:1000000000140020A11800006954000059180000D5
:10001000591800005918000059180000000000008D
:10002000000000000000000000000000E5140000D7
:1000300059180000000000008D140000591800003D
:10004000C5150000C5150000C5150000C515000048
:10005000C5150000C5150000C5150000C515000038
:10006000C5150000C5150000C5150000C515000028
:10007000C5150000C5150000C5150000C515000018
:10008000C5150000C5150000C5150000C515000008
:10009000C5150000C5150000C5150000C5150000F8
:1000A000C5150000C5150000C5150000C5150000E8
:1000B000C5150000C5150000C5150000C5150000D8
:1000C000C5150000C5150000C5150000C5150000C8
:1000D000C5150000C5150000C5150000C5150000B8
:1000E000C5150000C5150000C5150000C5150000A8
:1000F000C5150000C5150000C5150000C515000098
:1001000053B94AB9002908BF00281CBF4FF0FF317E
:100110004FF0FF3000F00CB8ADF1080C6DE904CEE3
:1001200000F008F8DDF804E0DDE9022304B07047D0
:10013000704700BF2DE9F04F07468C460846099EE0
:1001400015463C461946002B40F0C6808242B2FA62
:1001500082F746D94FB1C7F1200E24FA0EFE00FAFD
:1001600007F3BD404EEA030CBC404FEA15481FFAA6
:1001700085FEBCFBF8F9220C08FB19C309FB0EFA3B
:1001800042EA03439A4528D9EB1809F1FF3004D21B
:100190009A4502D9A9F102002B44A3EB0A03A4B2A9
:1001A000B3FBF8F208FB123302FB0EFE44EA0344F1
:1001B000A64514D92C1902F1FF3303D2A64501D963
:1001C000931E2C44A4EB0E0443EA00401EB1FC40F5
:1001D000002334607360BDE8F08F4846DDE71346C6
:1001E000F0E702B9FFDE87BB831A01214FEA154E03
:1001F000AAB2B3FBFEFC200C0EFB1C330CFB02F876
:1002000040EA0343984563D9EB180CF1FF3004D260
:10021000984502D9ACF102002B44A3EB0803A4B229
:10022000B3FBFEFC0EFB1C330CFB02F244EA03445E
:10023000A2424FD92C190CF1FF3304D2A24202D9A9
:10024000ACF102032C44A41ABEE7C7F1200C20FA3B
:100250000CF800FA07F324FA0CFCBD404CEA030248
:100260004FEA154EABB2B8FBFEFC110C0EFB1C8026
:100270000CFB03F941EA0040814504FA07F423D955
:1002800028180CF1FF3104D2814502D9ACF10201EA
:100290002844A0EB090092B2B0FBFEFC0EFB1C0050
:1002A0000CFB03F842EA004398450FD9EB180CF118
:1002B000FF3204D2984502D9ACF102022B44A3EBE1
:1002C000080342EA014191E76146E2E76246F6E748
:1002D0006046A2E76346B6E7834205D90EB1C6E998
:1002E00000700021084676E7B3FA83F181B98342B2
:1002F00001D3BA420AD8BC1A60EB030301209C4622
:10030000002E68D0C6E9004C002164E70846F7E7F4
:10031000C1F1200C8B4022FA0CF41C4302FA01F5C7
:1003200000FA01F327FA0CF220FA0CFB4FEA144909
:100330001343BBFBF9F81FFA84FE09FB18BB1A0C28
:1003400008FB0EFA42EA0B42924507FA01F73ED942
:10035000A21808F1FF3004D2924502D9A8F1020098
:100360002244A2EB0A029BB2B2FBF9F809FB182265
:1003700008FB0EFE43EA024296452AD9A21808F16C
:10038000FF3304D2964502D9A8F10203224443EA7E
:100390000040A0FB0593A2EB0E029A42CE4698467F
:1003A00002D306D14F4504D2B9EB050E63EB040826
:1003B000013886B1B7EB0E0362EB080707FA0CFCB5
:1003C000CB404CEA0303CF40C6E900379CE74046E8
:1003D000C7E74346DBE73146FDE6000008B51048B5
:1003E00005F0A1FE00B908BD0D48816802691368D7
:1003F00043F4804313600B680A4A0E219847002893
:1004000005DAF0E741F69A10002104F041FA0448B9
:1004100083685B694FF4804198470028F2DAE2E78D
:100420005C6600000100060008B50B6801330B6034
:10043000014B1B68984708BD00000020014B186065
:10044000704700BF0000002000B583B002460B4695
:100450000021019101A9034800F03CFA03B05DF8C6
:1004600004FB00BF290400002DE9F04383B00446DB
:1004700008461546238B13F0080F05D103F0070635
:1004800000230093019369E0012909D043F0200380
:10049000238385F31188BFF36F8F03B0BDE8F0832A
:1004A00043F010032383F4E7204604F0FAFD57E0FD
:1004B000D4F814904A466946204604F00BFE002703
:1004C0005AE023691F680621204604F0C3FD4FF05F
:1004D000000951E023695F680421204604F0BAFD59
:1004E0004FF0000948E023699F680521204604F089
:1004F000B1FD4FF000093FE0002246E0002244E059
:1005000043F00803238385F31188BFF36F8F00291D
:1005100044D1009B2BB14B4642466946204604F02D
:1005200050FE17B125492046B8474FF02003EFF39E
:10053000118583F31288BFF36F8F238B23F0080399
:100540002383238B13F0100F2ED023F0100323836B
:100550000120268B06F0070600289AD00228A3D097
:10056000002896D00128A3D00328AAD00428B1D00F
:100570000528B8D00027B946238B03F00708B045FB
:10058000BAD0A268002AB9D001221146002AB7D1F8
:10059000009A002AB4D1002FB2D1D2E74A46414690
:1005A000204604F05FFDB4E713F0200F04D023F0E1
:1005B000200323830220CCE70020CAE7F15100008A
:1005C00070B582B0044600230360436083604B78BB
:1005D000252B02D04E1C01251FE0881CE37045E14D
:1005E000237843F004032370B5B1013614E0237877
:1005F00043F008032370F7E7237843F010032370D8
:10060000F2E7237843F020032370EDE7237843F0EB
:1006100040032370E8E7002545B33378203B102BD7
:10062000F9D801A252F823F0F905000017060000DE
:10063000170600000306000017060000170600005A
:100640001706000017060000170600001706000036
:1006500017060000EF05000017060000E105000086
:1006600017060000170600000D060000237803F0AF
:100670004403442B5FD00196237843F0800323701A
:1006800033782A2B5CD001A804F043FE019B9E42E4
:100690000FD0237843F0800323706060DBB2C3F394
:1006A0004003002854DB00221343227863F3410205
:1006B0002270019B01931B782E2B14BF0023012372
:1006C000627863F341026270002B43D0019B5A1C95
:1006D00001925B782A2B3FD001A804F01AFEA0609B
:1006E0002378C3F3400300283EDB00221343227823
:1006F00063F341022270019803784C3B2E2B00F2E9
:100700009D80DFE803F0909B9B9B9B9B9B9B9B9B0F
:100710009B9B9B9B9B9B9B9B9B9B9B9B9B9B9B9B29
:100720009B9B339B579B459B9B9B9B9B9B9B899B2D
:100730009B9B9B9B820023786FF3861323709AE721
:10074000637843F001036370334601330193B1E7EB
:100750000122A9E70198CFE7637843F004036370AF
:10076000104601300190C7E70122BFE7421C4378E1
:10077000682B06D06378022161F3C60363701046CC
:100780001EE06378012262F3C6036370023017E053
:10079000421C43786C2B06D06378032161F3C603B7
:1007A000637010460CE06378042262F3C603637042
:1007B000023005E06378052262F3C60363700130FE
:1007C00010F8013BE370A3F14102372A7DD8DFE83E
:1007D00002F05E7C7C7C5E5E5E7C7C7C7C7C7C7CD7
:1007E0007C7C7C7C7C7C7C7C7C4F7C7C7C7C7C7C76
:1007F0007C7C5E7C4F3A5E5E5E7C3A7C7C7C7C6579
:100800004F717C7C717C4F7C7C4F6378062262F355
:10081000C60363700130D3E76378072262F3C6032F
:1008200063700130CCE76378082262F3C60363701B
:100830000130237843F002032370C1E763786FF33C
:10084000C6036370BCE7A278012161F30202A270C3
:10085000627802F07802402A10D0632B13D02378FC
:10086000C3F34002154365F34103237002B070BD2A
:10087000A278022161F30202A270E9E7217841F037
:1008800001012170E9E7151E18BF0125E7E7A378EC
:10089000042262F30203A3700125E0E7A378032298
:1008A00062F30203A370637803F07803402BD6D180
:1008B0000125D4E7A378032262F30203A3706378CF
:1008C00013F0780FCBD00125C9E7237843F001035B
:1008D0002370C4E72DE9F04F91B006460D469146CE
:1008E0000393002499F80000002800F0D582252801
:1008F00008D009F101092946B0470028C0F2CD828D
:100900000134EFE7002304930593069307930893BC
:100910000993494606A8FFF753FE02909DF8193047
:1009200013F0010F00F09780039B1A1D03921F68BC
:10093000002FC0F288809DF8193013F0040F00F0EA
:100940009C80039B1A1D0392D3F800A0BAF1000FFC
:10095000C0F28A800023079308939DF81A3003F0B1
:1009600007039DF81910C1F3C301012B00F08E801D
:10097000022B00F0D380042B00F02481032B00F025
:100980003B819DF8188018F0030B40F03B819DF8E7
:100990001B30253B532B00F2E681DFE813F04001CA
:1009A000E401E401E401E401E401E401E401E4011F
:1009B000E401E401E401E401E401E401E401E4010F
:1009C000E401E401E401E401E401E401E401E401FF
:1009D000E401E401E401E401E401E401E401E401EF
:1009E000E401E401E401E401E401E401E401E401DF
:1009F000E401E401E401E401E401E401E401E401CF
:100A0000E401E4018101E401E401E401E401E40121
:100A1000E401E401E401E401E4015E016701E401B1
:100A2000E401E401E4016701E401E401E401E4011B
:100A3000BE018101A201E401E4014D01E401810153
:100A4000E401E40181019DF8183043F004038DF8BE
:100A500018307F426FE79DF91830002B02DB4FF012
:100A6000FF3768E7079F66E79DF819306FF341038A
:100A70008DF819304FF0FF3A6CE713F0020F02D0F7
:100A8000DDF820A066E74FF0FF3A63E7CB1E042BAA
:100A900004D8DFE803F00B1D29353500039B1A1D30
:100AA00003921B68DA170493059206E0039B1A1D54
:100AB00003921B68DA1704930592012928D00229B2
:100AC0007FF45FAFBDF91030DA170493059258E751
:100AD000039B073323F0070303F108020392D3E9D2
:100AE0000023CDE90423E8E7039B073323F0070342
:100AF00003F108020392D3E90023CDE90423DCE7E4
:100B0000039B1A1D03921B68DA1704930592D4E71E
:100B10009DF8103004930023059332E7CB1E042B7D
:100B200004D8DFE803F00B1F35414100039B1A1D79
:100B300003921B680493002305931EE09DF81B306D
:100B4000632B07D0039B1A1D03921B680493002399
:100B5000059312E0039B1A1D03921B680493002364
:100B600005930AE0039B073323F0070303F1080210
:100B70000392D3E90023CDE9042301291CD00229E3
:100B80007FF4FFAEBDF81030049300230593F8E620
:100B9000039B073323F0070303F108020392D3E911
:100BA0000023CDE90423E8E7039B1A1D03921B6889
:100BB000049300230593E0E79DF81030049300238D
:100BC0000593DEE608290BD0039B073323F00703C8
:100BD00003F108020392D3E90023CDE90423D0E610
:100BE000039B073323F0070303F108020392D3E9C1
:100BF0000023CDE90423C4E6039B1A1D03921B685E
:100C00000493BEE6029F3B464A462946304604F01E
:100C1000FCFB0028C0F241810444B94662E6294643
:100C20002520B0470028C0F238810134D8460DF1A4
:100C30003E0A4FF000099BE0DDF81090BAF1000F7A
:100C400007DB5146484604F0D5FC09EB000AD846BC
:100C50008EE0484604F0C5FCF7E7049B8DF8283089
:100C6000D8460DF1290A0DF1280981E018F0080F86
:100C700005D118F0100804D04FF0200801E04FF023
:100C80002B08049A059B002B02DB0492059308E0D5
:100C9000524263EB4303049205934FF02D0800E0AA
:100CA000D8460DF13E0300930AAB06AADDE9040124
:100CB00004F041FB8146BAF1000FC0F288800DF1CB
:100CC0003E03A3EB09039DF818206FF386128DF8FD
:100CD00018209A457ED9AAEB030307930DF13E0A2B
:100CE00046E0049828B9D846DFF8B4A1AAF105096E
:100CF0003EE00DF13E0300930AAB06AA002104F08A
:100D00001AFB81469DF81A3043F010038DF81A3013
:100D100078238DF81B30D846CDE7049A9DF819301A
:100D2000C3F3C303072B06D8DFE803F0040B0D0F52
:100D30001115191B1460D8460DF13E0A4FF0000939
:100D400016E01470F7E71480F5E71460F3E7E31793
:100D500014605360EFE7E31714605360EBE714602F
:100D6000E9E71460E7E7D8460DF13E0A4FF00009C5
:100D7000B9F1000F00F08D80AAEB0903B8F1000F64
:100D800000D001339DF81A2012F0100F25D0023345
:100D900007990B4412F0400F01D0089A1344002F1A
:100DA00031DDFF1A9DF8183013F0040F2BD113F02A
:100DB000400F17D0B8F1000F17D029464046B04772
:100DC00000286ADB0134D8464FF0300B0FE00DF1FC
:100DD0003E0ACDE70DF13E0ACAE712F0080FD7D060
:100DE0000133D5E74FF0200B01E04FF0300B3B46CD
:100DF0005F1E002B07DD29465846B04700284CDB14
:100E000001343B46F4E7B8F1000F05D029464046CF
:100E1000B047002841DB01349DF81A30C3F30012BB
:100E2000C3F3C003134305D029463020B047002840
:100E300033DB01349DF81A3013F0100F06D0294629
:100E40009DF81B00B047002827DB0134079B03F106
:100E5000FF38002B07DD29463020B04700281CDB77
:100E600001344346F3E753464A462946304604F0E8
:100E7000CCFA002811DB0444002F07DD294620208E
:100E8000B047002809DB0134013FF5E7DDF80890A1
:100E900028E5DDF8089025E5204611B0BDE8F08F83
:100EA0009D68000008B54FF02002EFF3118382F334
:100EB0001288BFF36F8F00F031FE034804F0BCF8D6
:100EC00000F05EFAFCE700BFA068000070B52A4B96
:100ED0001D7D05F01F0301229A406909274B03EB92
:100EE0008103D043BFF35B8F53E8001F01EA000486
:100EF00043E80046002EF7D1BFF35B8F0A4200D1D2
:100F000070BD1F4805EB45029300C1181D4A72B120
:100F10004978C05C04F0E4FB4FF02003EFF3118646
:100F200083F31288BFF36F8F174B1C6810E0002308
:100F300083F31188BFF36F8FEEE70F4B1B7D03EB3D
:100F4000430399000E4B585C90470CB1246824B1C0
:100F50001CB1A268002AF0D1F7E786F31188BFF32D
:100F60006F8F074805EB4505AA00811800238350C1
:100F70004B608B60C4E700BFE00D002048030020F9
:100F800038030020E15600003003002070B504460D
:100F9000574B1D7D6A09BFF35B8F564B53F82230C8
:100FA000BFF35B8F05F01F02134113F0010F15D043
:100FB00005EB4503504A12F82330F3B1B4F1FF3F7B
:100FC00031D103F031F94FF02003EFF3118683F3B1
:100FD0001288BFF36F8F494B1C6845E001462846D5
:100FE00000F0A4F80028E3D005EB4503424A02EBE9
:100FF000830307C883E80700DAE705F01F0201232F
:1010000093406D093B4A02EB8505DB43BFF35B8FE1
:1010100055E8002F1A4045E800210029F8D1BFF318
:101020005B8F002062E005EB4503334A02EB83034C
:101030009868410CC003324BC018324A4FF000038D
:1010400041F10001FFF75CF80121201A05F082FA56
:10105000B7E7274B1B7D03EB4303274911F8230018
:1010600090470CB1246824B11CB16268002AF0D109
:10107000F7E786F31188BFF36F8F05F01F03012197
:1010800099406B09204A02EB8303BFF35B8F53E85F
:10109000002F0A4343E800200028F8D1BFF35B8FFC
:1010A0001A4B4BB1144B05EB450203EB8201497817
:1010B00013F8220004F008FBFFF708FF05F01F03F8
:1010C000012404FA03F36D090A4A02EB8505DB43A8
:1010D000BFF35B8F55E8002F1A4045E80021002937
:1010E000F8D1BFF35B8F03F0C1FA204670BD00BF9B
:1010F000E00D0020440300203803002030030020CE
:101100003F420F0040420F0048030020C956000034
:10111000BFF35B8F044B53F82000BFF35B8F0038A5
:1011200018BF0120704700BF4C0300202DE9F0419B
:1011300082B00E4601A900F043F8441E24B207E035
:10114000B6F1FF3F32D04044B0422FD9013C24B227
:10115000002C2ADB019B04EB440203EB820513F80D
:101160002200FFF7D5FF0028F0D16868410CC003CA
:10117000104FC019104A4FF0000341F10001FEF773
:10118000BFFF8046AB68590CDB03D8190A4A4FF001
:10119000000341F10001FEF7B3FF084B1B68B3F1F8
:1011A000FF3FCDD08342CBD8D0E70025284602B000
:1011B000BDE8F0813F420F0040420F0004000020D4
:1011C00008B9024B0B600020704700BFCC680000DC
:1011D00008B5024803F07CFD08BD00BFCC680000E4
:1011E000D0B108B54268042A05D0D2B1006802F037
:1011F00011FF002008BD03680022BFF35B8F53E896
:10120000001F012903D143E800200028F7D1BFF3D4
:101210005B8F04D11046EDE76FF4E0407047024861
:10122000E8E70248E6E700BFE98FFFFFEA8FFFFF2C
:1012300020B308B54268042A02D092B911480FE0E1
:1012400003680122BFF35B8F53E8001F002903D11D
:1012500043E800200028F7D1BFF35B8F0CD10020BA
:1012600008BD00684FF0FF324FF0FF3302F048FE38
:101270000028F5D00448F3E70348F1E76FF4E040B5
:10128000704700BFEA8FFFFFE98FFFFF10B50446EC
:1012900088B16368042B0DD0082B0BD053B113F029
:1012A000020F0DD02146094804F091FF002323606E
:1012B0000023636010BD064B5B6806489847E8E76B
:1012C00014220021206804F0CEF9F1E76803002021
:1012D000E0000020D468000010B5044678B16368CF
:1012E000042B0BD0082B09D00BB9236863B12068FD
:1012F00004F0DCFF636843F00103636010BD0F4B33
:101300005B680F489847EAE74FF0FF324FF0FF3332
:1013100021460C4802F0C6FC08B923681BB9074BEC
:101320005B680948984714220021206804F09BF963
:10133000636843F002036360D9E700BFE000002068
:10134000D468000068030020FC68000008B5402352
:1013500014220449044804F02CFF0449044803F013
:1013600017FD08BD84030020680300203C690000CD
:101370002C690000014910220A60704710ED00E05E
:1013800072B6404080F31188BFF36F8FBFF34F8F69
:1013900030BF62B6BFF36F8F704700BF72B649406F
:1013A00081F3118820BF80F3118862B6704700BFB7
:1013B00040B2002807DB00F01F02400901239340E0
:1013C000014A42F82030704700E100E04209054B35
:1013D00053F8222000F01F00012303FA00F0104010
:1013E000704700BF00E100E0013140B2002808DB97
:1013F0004901C9B200F1604000F5614080F8001376
:10140000704700F00F004901C9B2014B19547047F1
:1014100014ED00E030BFFFF7FDBF00BF08B50B4B78
:101420000B4A22F07F029A60BFF34F8FBFF36F8F9A
:10143000D3F8882022F47002C3F8882002F07EFBE3
:1014400003F080FA00F012FA02F0D6FB00ED00E0A3
:10145000000000000A4A9368C3F8A8000949096817
:10146000C3F8AC1008494B6843F080534B6000232D
:1014700083F31188BFF36F8F9368D3F8AC00704784
:10148000E00D0020CC6A000000ED00E013498A68FE
:101490004FF030001044EFF3098C80E8F01F20205B
:1014A00080F31288BFF36F8F0D4F4FF00066CA694B
:1014B0008A603E60D2F8A8000023C2F8A83080F30A
:1014C000118804B5104600F07BFABDE8044002F133
:1014D000300090E8F01F8CF309887047E00D002081
:1014E00004ED00E01EF0040F0CBFEFF30880EFF3F3
:1014F0000980816911F8021C0229FFD001B503F0AF
:10150000A7FF01BD10B4A2F120040E4942F8081C47
:1015100021F0010142F8081C42F8203C019B42F8EE
:101520001C3C029B42F8183C039B42F8143C4FF0D1
:10153000807342F8043C04650023C0F8A83010BC56
:10154000704700BFFF520000124B9A6802B310F1BF
:10155000160F11D0D2F89830A3F1200C844505D88D
:10156000834205D98B4205D800210BE0002109E018
:10157000002107E0012105E0D2F898308B4294BFAA
:101580000021012109B900207047D2F89800704766
:1015900000207047E00D002008B50D461446084BAA
:1015A000986000F00DFA204685F30988002163B6A3
:1015B00081F31188BFF36F8F0022002303F09FFE99
:1015C000E00D002001B572B60B4A906900281EBFDD
:1015D0000021916104F04EFE62B6EFF30580A0F1A8
:1015E00010004FEAC0000549014409C99847BDE809
:1015F0000140034908470000E00D0020A4660000F8
:1016000005160000044B9968D869884203D0034945
:101610004FF080520A607047E00D002004ED00E0BA
:1016200010B51446124B9A6A9A6A9B6A13F4007FAB
:101630000BD00F4B9A6B9B6A13F4004F05D021B16E
:101640000B4A936A23F400439362094B9A6A9B6A9C
:1016500013F4807F01D1064B9B6A054A936A43F4D9
:101660007F439362012103F005FF2070002010BD2D
:1016700000ED00E0074B9A6A9A6A9A6A9A6A9A6A37
:101680009A6A9A6A6FEA02426FEA12429A620020EC
:10169000704700BF00ED00E070B505461646254BCB
:1016A0009A6A9A6A9B6A13F0020F0CD0214B586B0E
:1016B0009B6A13F0800F2FD039B11E4A936A23F032
:1016C0008003936201E06FF015001A4B9A6A9A6AE0
:1016D0009B6A13F0100F04D1164B9C6A14F002049D
:1016E00004D0144B5C6814F4006418D1114B9B6A4D
:1016F00013F0200F04D00F4A536A23F400535362AF
:101700000C4A936A43F0FF0393620121284603F0D9
:10171000B1FE3070204670BD6FF01500D5E7294648
:10172000FFF712FF04460028E0D080F30988022466
:10173000DCE700BF00ED00E008B5844600230B7035
:101740001B4BD86A10F002002ED1DB6A002B2CDB79
:10175000174BDB6A13F0804328D0DCF8183033F8DD
:10176000022C4DF602739A420FD0114B93F8283099
:1017700073B90F4B93F8293083B90D4B5B8D9BB236
:101780009BB16046FFF776FF0FE0DCF800000CE04D
:101790000A4601216046FFF77FFF06E00A46012165
:1017A0006046FFF73DFF00E0002008BD1846FCE75B
:1017B00000ED00E070B58AB00C46224B5968C1F3C9
:1017C0000801002383F31188BFF36F8F02F07F437A
:1017D000B3F17F4F15D102F00C03082B14D012F097
:1017E000080F0BD000260DF12702204603F047FE1C
:1017F00005469DF8273053B10AB070BD0446012656
:10180000F1E700263446EEE700263446EBE72022D7
:10181000214601A803F0F8FE4EB1089BC3F308026D
:101820005AB96FEA53236FEA4323089305E0089BF4
:1018300023F4FF7323F00103089301A9284603F062
:1018400003FED9E700ED00E0024A536943F01003BC
:101850005361704700ED00E0EFF30880EFF309817A
:1018600001B57246FFF7A6FF01BD00BF002206E0EA
:1018700002F00F01094B0B442021197601322F2A67
:101880000ADC53B2002BF3DB03F1604303F5614341
:10189000202183F80013F1E7704700BFFCEC00E063
:1018A000002080F31488BFF36F8F04F089FE0020BE
:1018B0000D490860BFF34F8F0C4880F3088800F093
:1018C0002DF8202080F3118809484FF40261401858
:1018D00080F30988EFF314800221084380F3148811
:1018E000BFF36F8FFFF79AFD94ED00E00014002026
:1018F00080150020084BD3F89000C0F30720002388
:1019000006E0054AC2F898300021C2F8A010013361
:101910008342F6DB704700BF00ED00E010B572B601
:10192000002484F31388FFF7E5FF234608E003F162
:1019300020010E4A4FF0FF3042F821000133DBB2A4
:10194000072BF4D9002308E003F16001074A4FF0A8
:10195000FF3042F821000133DBB2072BF4D962B625
:10196000BFF34F8FBFF36F8F10BD00BF00E100E0EA
:1019700008B50A4B9B68834202D002F0BBFF08BD4A
:10198000EFF30583002BF8D0054B5A6842F08052E4
:101990005A605A6A22F400425A62EEE7E00D0020D3
:1019A00000ED00E008B5034B034A0121034803F0B2
:1019B000ECFD08BD0000042000000020506900007C
:1019C00008B5D0F89830203B0448036020234360DA
:1019D000034B8360012103F0DCFD08BD8408002077
:1019E00000000B15084AC2F898000B6823F01F038B
:1019F000034343F01003C2F89C308B6843F00103AB
:101A0000C2F8A030704700BF00ED00E010B5034CF5
:101A10000123227803F091FD207010BDF40F002007
:101A200008B50023094A127803F087FD10F1160F5C
:101A30000AD0034606E0064AC2F898300021C2F8F0
:101A4000A0100133072BF6DD08BD00BFF40F002006
:101A500000ED00E0044B0522C3F89420BFF34F8F44
:101A6000BFF36F8F704700BF00ED00E0BFF35F8FE3
:101A7000024B0022C3F89420704700BF00ED00E045
:101A800038B50E4B1D68082D15D8FFF7EFFF002461
:101A900009E00A4B596804EB4402930019442046BC
:101AA000FFF7A0FF0134A542F3D8054B1D70FFF7E7
:101AB000D1FF002038BD4FF0FF30FBE76C6900001C
:101AC000F40F0020014B1860704700BF2800002071
:101AD00010B54FF02003EFF3118483F31288BFF3A6
:101AE0006F8F01230C4AC2F840354FF08042C2F894
:101AF000783503F0D9FD20B14FF080430122C3F8BF
:101B000038264FF080430122C3F8802584F31188E2
:101B1000BFF36F8F002010BD00E00140C0B24FF056
:101B20008042C2F81C05BFF34F8F0549CA6802F412
:101B3000E062044B1343CB60BFF34F8F00BFFDE760
:101B400000ED00E00400FA0530B108B58001034B58
:101B500043F00103984708BD704700BF906800003C
:101B600000487047E0080020034BC01A8010034B68
:101B700003FB00F0704700BFA0080020B76DDBB684
:101B800038B505460C46FFF7EFFF014640220348F3
:101B900003F021FE01462846A04738BD2C66000010
:101BA00030B583B005460C46FFF7DEFF0146402303
:101BB00000932346054A064803F027FE011E01DB79
:101BC00003B030BD2846A047FAE700BF53580000D5
:101BD0002C66000008B510B101280DD008BD002109
:101BE000084803F083FD836813F0070FF6D1002146
:101BF000044803F0DEFDF1E70121024803F0D9FDBE
:101C0000ECE700BF2C66000010B54FF02003EFF3A7
:101C1000118483F31288BFF36F8F134A136843F064
:101C20000203136013F0010F08D1002384F311881D
:101C3000BFF36F8F9BB903F014FE10BD4FF08043CC
:101C4000D3F80C24D3F80C3412F0010F01D1002387
:101C5000ECE7FFF785FF03F099FD0123E6E700219C
:101C6000024803F0A6FDE8E7F00800202C6600001B
:101C700008B50A4BBFF35B8F53E8002F22F0020137
:101C800043E800100028F7D1BFF35B8F12F0010F7B
:101C900000D008BD03F0EFFDFBE700BFF008002017
:101CA00000B585B0CDF800D0CDF804D00023029364
:101CB000012303936B46074A03F0C3FD002805DBAD
:101CC0004FF480420023684602F00CFA05B05DF83C
:101CD00004FB00BF8B58000070B5064600220121AE
:101CE0001046FFF781FB114801F02CF9104B984288
:101CF00019D104F08FF90024012C12D82146304666
:101D000003F0F4FC05462146304603F0FAFC09498D
:101D100003F07CFA002805DB0123AB601C44E4B22D
:101D2000EAE7002070BD6FF00400FBE7D51B000060
:101D30000000AD0BBC69000070B50546012807D155
:101D40004FF08043D3F81C3403F00303012B5AD027
:101D500004F07BFA28B92F4B1B78002B43D00023CB
:101D600000E001231C46002B3FD04FF02003EFF38F
:101D7000118683F31288BFF36F8F24B94FF080432D
:101D80000222C3F808234FF08042D2F8183403F03F
:101D90000303D2F8182412F4803F2DD100221AB187
:101DA000012B2BD0012D29D00CB33046FFF7F6FACA
:101DB0004FF08043D3F81835002BE4D14FF0804327
:101DC000D3F80431002BDED04FF080430022C3F85B
:101DD0000421D3F804210122C3F818250E49C1F8C3
:101DE00080219A60CFE70123BCE70026C5E72120C8
:101DF000002102F04DFDDBE70122D0E724B186F39C
:101E00001188BFF36F8F70BD4FF080430222C3F87B
:101E10000423F8E7F50F002000E100E010B50446C8
:101E2000104B0121BFF35B8F53E8002F43E80010F4
:101E30000028F9D1BFF35B8F1AB1631E012B0DD9B6
:101E400010BD094803F05DFC084900234B608B601E
:101E5000CB6001238B6003F0F6F9EEE72046FFF735
:101E60006BFFEDE7F40800202C66000090080020CE
:101E700010B504460A2807D0074B1868E1B28368FA
:101E80005B689847204610BD034B186883685B6801
:101E90000D219847F0E700BFF808002010B5044C6A
:101EA0002046FFF70FFE2046FEF7C8FA10BD00BF20
:101EB000711E000008B50648064B186004F033F99F
:101EC00018B1FFF7EBFF002008BD6FF01200FBE731
:101ED0008C660000F808002028B1012801D10348D1
:101EE0007047002070470248704700BF44660000FA
:101EF0005C660000F0B585B00E46194643681B7B52
:101F000006F01F0545EA4315B2F5001F22D007462B
:101F10001446002302930393104603F034FD8DF81A
:101F200008007B689968F14011F0010F02D1B4F10B
:101F3000A07F14D0002302AA1946284601F072FAA5
:101F40001B4B984231D10121284601F049FC002069
:101F500005B0F0BD284601F0A7FC0020F8E705F029
:101F60001F036A09012A14D04FF0A04203F5E07361
:101F700052F8233013F0010FDCD10DF10701284690
:101F800001F0D2FB0B4B984205D00DF107030393F0
:101F9000D0E7094AEAE70DF1070001F019FC044B0C
:101FA0009842F2D06FF00B00D2E76FF00400CFE759
:101FB0000000AD0B0400AD0B0003005030B583B042
:101FC00004460DF1070101F0AFFB0546204601F084
:101FD0009BFC0B4B98420FD19D4205D0084B984279
:101FE00007D1002003B030BD9DF8070001F0E8FBE9
:101FF000F4E76FF00400F5E76FF00400F2E700BFCC
:102000000000AD0B2DE9F04387B0D0F8048098F8BC
:102010000C3001F01F0545EA4315002A44D00C4658
:1020200017460026039604960DF11701204601F08D
:102030007BFB8146334603AA3146284601F0F2F97C
:10204000304B98425BD1994536D017F4003F43D0CE
:102050000DF10301384603F01DFC064640BB9DF818
:1020600003308DF8043017F4803F0CBF01230023A8
:102070008DF80530384603F053FC8DF8060017F450
:10208000002F1ED0D8F80430012101FA04F4C3F85F
:102090000845002201A9284601F07CFA194B984214
:1020A00006D06FF0150603E02846FFF787FF0646C7
:1020B000304607B0BDE8F0839DF8170001F080FBC3
:1020C000C3E717F4802FE4D0D8F80420012303FAE3
:1020D00004F4C2F80C45DCE7384603F021FC8DF827
:1020E000080000231A4602A9284601F09BF9054B77
:1020F000984201D10026DBE76FF01506D8E76FF0B4
:102100001506D5E70000AD0B08B501F04FFB08B18F
:10211000002008BD01F020FB084B98420AD10021A5
:10212000074801F0FBFA002205210620FFF75CF9C1
:102130000020EEE76FF00400EBE700BF0000AD0BFE
:10214000255A000043681A68B1F5164F6FD03AD887
:10215000B1F5165F6ED00AD9B1F5E14F75D024D92B
:1021600047F6122399422BD14FF4000313E0B1F547
:10217000966F61D007D9B1F5166F63D0B1F5965F50
:1021800010D13C4B07E0B1F5967F58D0B1F5167FE2
:1021900005D14FF41C33C2F82435002070476FF08E
:1021A000150070476FF015007047B1F5615F4ED0B4
:1021B000B1F5964F01D1304BEDE76FF01500704748
:1021C0006FF015007047B1F5613F42D009D9B1F504
:1021D000612F46D01FD9294B994248D14FF08053E7
:1021E000D9E7B1F5963F37D005D9B1F5E13F0FD129
:1021F0004FF0EB73CFE74DF6C02399422ED0B1F5E7
:10220000614F02D14FF46B03C5E76FF015007047C3
:102210006FF0150070471A4B994225D0B1F5E12FA8
:1022200002D14FF0E863B6E76FF0150070474FF446
:102230001D03B0E7134BAEE74FF49E23ABE74FF41B
:10224000A033A8E74FF41D23A5E70F4BA3E70F4BDF
:10225000A1E74FF06C739EE70D4B9CE74FF46503CD
:1022600099E74FF0706396E74FF0806393E76FF064
:102270001500704700B0130000A04E0040420F0050
:1022800090D003000050270000C0750000F03A0015
:1022900000903A012DE9F04105460F46D0F8108034
:1022A00003F0D3FF20B9164B1B7843B1002300E0A5
:1022B000012353B9284603F0CCFC064613E0012362
:1022C000F7E784F31188BFF36F8F4FF02003EFF32C
:1022D000118483F31288BFF36F8F2646284603F0DC
:1022E0006AFC0028EDD0414601F8107F0122284603
:1022F00003F07BFC86F31188BFF36F8FBDE8F0819C
:10230000F50F002038B504460D4601F1120001F02A
:102310004FFB0C4B984211D1AB7C04F590710C34FF
:10232000094AA23342F8331002EBC3035C60A97C74
:1023300001238B40C2F80435002038BD6FF0040043
:10234000FBE700BF0000AD0B00F0014021F07F4132
:1023500000F5A870014B43F82010704700100140B1
:1023600000F5A870014B53F82000704700100140A1
:102370004FF480338340024AC2F84433704700BFB1
:10238000001001404FF480338340024AC2F84833C2
:10239000704700BF00100140014BD3F8040570479F
:1023A0000010014010B5012383406FEA030C104A6E
:1023B000BFF35B8F52E8001F01EA0C0E42E800E415
:1023C000002CF7D1BFF35B8F4FF4803202FA00F09C
:1023D00002F1804202F58052C2F80803BFF35F8F1A
:1023E000BFF36F8F0B4214BF0120002010BD00BF50
:1023F0001809002070B5044603F0E5FC05464FF4CB
:102400008033A340174AD2F80423134205D1002693
:10241000284603F0E1FC304670BD0123A340DB43B6
:10242000114ABFF35B8F52E8001F01EA030042E844
:102430000006002EF7D1BFF35B8F59B904F15003AA
:102440009B009BB203F1804303F588331B6813B1F3
:10245000012300E001231E46002BD9D0204603F0C3
:10246000A3FCD5E7001001401409002001B9704712
:1024700001238340114ABFF35B8F52E8001F1943C9
:1024800042E8001CBCF1000FF7D1BFF35B8F4FF4A3
:10249000803383400A4AC2F80433BFF35B8F094B91
:1024A0001B68BFF35B8F23FA00F010F0010FDED042
:1024B000054B4FF40032C3F80021D8E7180900207B
:1024C000001001401409002000E100E02DE9F8436C
:1024D000074614461E461046194603F071FC054691
:1024E000154B1A68A01A1C605E60A5F50013B3F5C1
:1024F000400F09D3002402F013FB3846FFF730FFEA
:10250000A8420ED0BDE8F8830C4B1B681A0A1B06C4
:1025100015EB030842F10009094BC3E900890124C6
:10252000E9E71CB13846FFF723FFEBE74FF4000162
:102530003846FFF70BFFF5E7C00100201C0900201B
:10254000A801002038B50D4B1C68250A2406BFF3EE
:102550005F8FFFF721FF0346001945F10001B3F536
:10256000801F0AD2064BD3E90023904271EB03038C
:1025700003D210F1807041F1000138BD1C09002028
:10258000A8010020F8B5064614461D461046194617
:1025900003F016FC0746FFF7D5FFA04271EB0503D9
:1025A0001DD2231A65EB01011B4A934271F100030E
:1025B0002FD21A4B03EB0613D3E90223AB4208BF19
:1025C000A2421AD03946304603F00BFC394603F0DC
:1025D000E7FB001945F1000304461D460DE0012309
:1025E000B3400F4ABFF35B8F52E8001F194342E824
:1025F00000100028F8D1BFF35B8F084B320103EBCA
:102600000616C6E9024506999950079B736000209B
:10261000F8BD6FF01500FBE701000001B0010020DC
:102620001409002030B583B000231D4AC2F80835D4
:10263000002B24DD1A4C0225C4F80453194B4FF427
:102640000032C3F88021002201211120FEF7CCFEC8
:102650001120FEF7ADFE0123A3602360124A136030
:1026600000240194114B0093114A0023204603F0EB
:10267000F3FB2846FFF7D2FB204603B030BD0D4ADE
:1026800002EB03124FF0FF304FF0FF31C2E90201BD
:102690004FF480329A400249C1F804230133C7E75E
:1026A0000010014000E100E018090020CD240000E6
:1026B000FFFF7F00B00100202DE9F04782B0044603
:1026C000FFF798FE10B902B0BDE8F087FFF73AFFB8
:1026D00082460E4603F077FB0546134B03EB0413CB
:1026E000D3E90289C24576EB09030BD200262846BE
:1026F00003F072FB002EE6D0009742464B46204680
:10270000B047E0E7084A230102EB0411D6584F68AE
:102710000020D0504FF0FF324FF0FF33C1E90223C9
:102720002046FFF72FFEE2E7B001002010B50E4B68
:10273000D3F8043313F0020F0DD00B4BD3F8043150
:102740004BB1094B0022C3F80421D3F80431074AE6
:102750001368013313600024002C00DD10BD2046F7
:10276000FFF7AAFF0134F7E7001001401C09002021
:1027700010B582B0B0F1FF3F06D0012806DDB0F5FC
:10278000000F05DA441E04E00F48F8E7002400E0DB
:102790000D4CFFF7D7FE0D4B19685B68401AB0F57A
:1027A000000F00D300242044421CB2F5000F00D3D8
:1027B000054A00208A1801900549009143F1000361
:1027C00003F04AFB02B010BDFFFF7F00C0010020F4
:1027D000CD24000008B5FFF7B5FE024B1B68C01AF8
:1027E00008BD00BFC001002000B510F4805F01D01B
:1027F00001220021C0F3811EC0F3032C00F01F034F
:1028000010F0200F0DD14FF0A04041EA420141EA03
:102810008E0141EA0C2103F5E07340F823105DF8C6
:1028200004FB0148F1E700BF00030050F8B505467E
:102830000E461746002417E003F03F03C7F80C3597
:1028400055F8242002F01F0312F0200F60D14FF042
:10285000A042012101FA03F3C2F808350A462858BC
:10286000FFF7C2FF0134E4B2B44280F0BF81A000A0
:1028700055F824301A0C222A00F2BA8101A151F82D
:1028800022F000BF39280000152900002B29000084
:102890005D29000073290000A5290000D729000048
:1028A000F12B0000F12B0000F12B0000F12B0000B8
:1028B000ED290000032A0000F12B0000F12B00009D
:1028C000F12B0000F12B0000F12B0000F12B000098
:1028D000F12B0000F12B0000F12B0000192A000061
:1028E0006D2A0000C12A0000152B0000F12B00000A
:1028F000F12B0000F12B0000692B00007F2B000062
:10290000952B0000AB2B0000C12B0000D72B000043
:10291000B94A9EE703F03F03C7F814350022114679
:1029200055F82400FFF760FF9CE703F03F03C7F86A
:10293000083555F8242002F01F0312F0200F0BD1A8
:102940004FF0A042012101FA03F3C2F808350A460C
:102950002858FFF749FF85E7A74AF3E703F03F034D
:10296000C7F810350022114655F82400FFF73CFF48
:1029700078E703F03F03C7F8083555F8242002F044
:102980001F0312F0200F0BD14FF0A042012101FADA
:1029900003F3C2F80C3500222858FFF725FF61E742
:1029A000954AF3E703F03F03C7F80C3555F82420A8
:1029B00002F01F0312F0200F0BD14FF0A0420121B3
:1029C00001FA03F3C2F80C350A462858FFF70CFF4A
:1029D00048E7894AF3E703F03F03C7F810350022C0
:1029E000114655F82400FFF7FFFE3BE703F03F03D5
:1029F000C7F808350022114655F82400FFF7F4FE09
:102A000030E703F03F03C7F80C350022114655F8B4
:102A10002400FFF7E9FE25E703F03F03C7F8603520
:102A200055F8243003F03F0213F4005F11D102F097
:102A30001F0153090BD14FF0A04201238B40C2F874
:102A40000C35012211462858FFF7CEFE0AE76A4AE4
:102A5000F3E702F01F01530906D14FF0A042012312
:102A60008B40C2F80835ECE7634AF8E703F03F0310
:102A7000C7F8643555F8243003F03F0213F4005FC3
:102A800011D102F01F0153090BD14FF0A0420123D5
:102A90008B40C2F80C35012211462858FFF7A4FEDE
:102AA000E0E6554AF3E702F01F01530906D14FF063
:102AB000A04201238B40C2F80835ECE74E4AF8E704
:102AC00003F03F03C7F8683555F8243003F03F02A0
:102AD00013F4005F11D102F01F0153090BD14FF025
:102AE000A04201238B40C2F80C3501221146285820
:102AF000FFF77AFEB6E6404AF3E702F01F015309FA
:102B000006D14FF0A04201238B40C2F80835ECE714
:102B1000394AF8E703F03F03C7F86C3555F824301D
:102B200003F03F0213F4005F11D102F01F015309BB
:102B30000BD14FF0A04201238B40C2F80C3501228B
:102B400011462858FFF750FE8CE62B4AF3E702F0B7
:102B50001F01530906D14FF0A04201238B40C2F858
:102B60000835ECE7244AF8E703F03F03C7F82435BB
:102B70000122002155F82400FFF736FE72E603F02B
:102B80003F03C7F828350122002155F82400FFF73C
:102B90002BFE67E603F03F03C7F830350122002122
:102BA00055F82400FFF720FE5CE603F03F03C7F86A
:102BB00034350122002155F82400FFF715FE51E6B7
:102BC00003F03F03C7F838350122002155F82400EF
:102BD000FFF70AFE46E603F03F03C7F83C35012243
:102BE000002155F82400FFF7FFFD3BE6002001E03F
:102BF0006FF08500F8BD00BF00030050024BD3F812
:102C00000034002BFAD0704700E0014008B5034BB8
:102C1000C3F80405FFF7F2FF08BD00BF00E0014064
:102C2000014B024A1A607047540000200090D00304
:102C300038B503F056F940B14FF080430022C3F895
:102C40000C21C3F81021C3F8382503F054F90028EB
:102C500046D04FF08052D2F80414594BC3F82015D7
:102C6000D2F80814C3F82415D2F80C14C3F82815A8
:102C7000D2F81014C3F82C15D2F81414C3F8301578
:102C8000D2F81814C3F83415D2F81C14C3F8401540
:102C9000D2F82014C3F84415D2F82414C3F8481508
:102CA000D2F82814C3F84C15D2F82C14C3F85015D8
:102CB000D2F83014C3F85415D2F83414C3F86015A0
:102CC000D2F83814C3F86415D2F83C14C3F8681568
:102CD000D2F84014C3F86C15D2F84424C3F8702518
:102CE00003F013F918B1374B374AC3F88C2603F0B9
:102CF0001FF918B1354BFB22C3F8182503F02BF947
:102D000070B14FF08041D1F8E43E23F00F034FF053
:102D10008052D2F8582202F00F021343C1F8E43E69
:102D200003F02CF920B12A4B4FF40072C3F840266F
:102D300003F037F960B14FF08043D3F8003413F05B
:102D4000010F05D04FF080436FF00102C3F800245B
:102D500003F031F938B14FF01023D3F808224FF0C7
:102D60008043C3F858254FF01023D3F80032002BCE
:102D700008DB4FF01023D3F80432002B02DBFFF7FF
:102D80004FFF38BD0120FFF741FF4FF010241225FF
:102D9000C4F80052FFF732FFC4F80452FFF72EFFC9
:102DA0000020FFF733FFBFF34F8F0A49CA6802F4D0
:102DB000E062094B1343CB60BFF34F8F00BFFDE7C9
:102DC00000C00040005000404881030000F0004077
:102DD0000090024000ED00E00400FA0510B5046820
:102DE000B4FA84F3C3F11F035FFA83FC002B16DBF4
:102DF000012202FA03F324EA0303BFF35B8F50E8D6
:102E0000002FA24204D140E8003EBEF1000FF6D1EF
:102E1000BFF35B8FE3D181F800C0024810BD0248C8
:102E2000FCE700BF0000AD0B0200AD0B0368CB4018
:102E300013F0010F15D100B5026801238B40134335
:102E4000BFF35B8F50E800CF944504D140E8003ECB
:102E5000BEF1000FF6D1BFF35B8FEDD102485DF8F4
:102E600004FB0248704700BF0000AD0B0400AD0B2F
:102E700070B582B0054618B1012816D002B070BDF9
:102E80004FF080430222C3F808230022C3F8042134
:102E9000D3F804210122DA6001238DF807309D4226
:102EA0000FD0002642F2107429E04FF08043012237
:102EB000C3F808230021C3F80011D3F800115A60A9
:102EC000EAE70DF10706EDE736B14FF08043D3F89E
:102ED000183403F0030333604FF08043D3F8183401
:102EE00013F4803F22D1002323B31EB19DF8073095
:102EF000012B1FD1012003F071F8013C1AD0002DE5
:102F0000E2D0012D01D00023EEE736B14FF080432F
:102F1000D3F80C3403F0010333704FF08043D3F83F
:102F20000C3413F4803F03D10023DDE70123DBE7FA
:102F30000123D9E7012DA1D1014B00225A719DE750
:102F400020090020064B1B793BB9054B1860012274
:102F50001A7100225A71034870470348704700BF36
:102F6000200900200000AD0B0C00AD0B08B54FF0A0
:102F70008043D3F800318BB14FF080430022C3F877
:102F80000021D3F800210122C3F80823154B5B79F7
:102F900023B9144B5A711B68002098474FF08043A7
:102FA000D3F804319BB14FF080430022C3F80421D1
:102FB000D3F80421D3F81824D3F8183412F0030FEF
:102FC00006D14FF080430122C3F818259A6008BD4E
:102FD0004FF080430222C3F80823024B1B680120F4
:102FE0009847F4E7200900200830034B33F810001D
:102FF00000F00100704700BF580000200830034B6C
:1030000033F81000C0F34010704700BF5800002094
:103010000830044B33F8100010F01C0018BF0120DA
:10302000704700BF580000200830034B33F81000F1
:10303000C0F34000704700BF580000200830024B2A
:1030400033F81000400B704758000020002204E0C5
:103050004FF0FF3383420FD001322F2A0AD802F1FA
:103060000803064931F8133013F4807FF0D0C3F31E
:103070004323EFE7002070470120704758000020ED
:10308000002313B14FF0FF307047074A52F8332046
:10309000824201D00133F4E7034A02EBC3025268D3
:1030A0008A42F7D118467047580000200830064B76
:1030B00033F8100010F4807F04D0C0F3432003EBFA
:1030C000C0007047002070475800002070B50446CB
:1030D0000D46FFF7EBFF20B10668426829462046FF
:1030E000B047044B9B6823B1024AD2682946204668
:1030F000984770BD5800002000F108020E4B33F8CD
:10310000123013F4807F16D010B5C3F34324104659
:1031100023F4F853084A22F810302046FFF796FFB0
:1031200000B110BD0448002340F83430214674300B
:10313000FFF77CFEF5E770475800002010B5044605
:10314000FFF75CFF40B12046FFF778FF00F5A27063
:10315000064B002243F820202046FFF7CDFF08341D
:10316000034B002223F8142010BD00BF0060004074
:103170005800002070B582B006460C461546FFF791
:10318000BBFF24B329462046FFF77AFF031E13DB5B
:10319000104A42F8334002EBC3014D605B029BB220
:1031A00006F1080032F810100B4343F4807322F844
:1031B0001030094802B070BD0DF107010748FFF754
:1031C0000DFE054B9842F5D19DF80730E0E7024827
:1031D000F0E700BF580000200000AD0BCC0000203D
:1031E00038B5044618E094FAA4F3B3FA83F3012245
:1031F0009A4024EA02040A4A03F5A27352F82350C3
:10320000C5F3052552F82300C0F3014002F07BFF0F
:1032100001462846FFF75AFF002CE4D138BD00BF15
:103220000060004082B08446114B93E8030002AB7B
:1032300003E90300604600230BE002AA02EB8302CD
:1032400052F8082CD2F8201540F8041BC2F82015BB
:103250000133012BF1D90023012B04D85CF8232082
:1032600022B90133F8E7002002B070470120FBE7E4
:103270008068000070B504460D461646084602F008
:1032800044FFD0B9022E52D0022004F01F0261097F
:1032900001294ED04FF0A04102F5E07251F82230E2
:1032A00023F4403343EA004341F82230032D44D055
:1032B000022E40D0032E45D070BD29462046FFF790
:1032C00005FF04F01F036209012A2AD04FF0A04233
:1032D00003F5E07352F82330C3F301439E42EBD170
:1032E00004F01F036209012A1DD04FF0A04103F52D
:1032F000E07351F8232022F4403241F8232004F0F7
:103300001F036409012C10D04FF0A04103F5E073B6
:1033100051F8232022F4403242EA064641F8236065
:10332000CAE70A4AD4E70949E1E70849EEE703207A
:10333000ABE70649B0E7012DBCD129462046FFF78F
:10334000C5FEB9E7022DB7D1F7E700BF0003005073
:1033500070B584B02F4A6B4692E8030083E80300FF
:10336000002302A80BE004AA02EB830252F8102CFF
:10337000D2F8201540F8041BC2F820150133012BA8
:10338000F1D942E0244E05F5E07356F82320C2F34C
:103390000142FFF76FFF0123AB40C6F8203504ABB5
:1033A00003EB840353F8080C10B390FAA0F0B0FAC2
:1033B00080F000EB441000F10802184B33F81210B3
:1033C000C1F38201C50800F007020DF1080C0123CA
:1033D00003FA02F21CF8053023EA02030CF8053068
:1033E00000F01F054309012BCCD04FF0A046CAE7DF
:1033F0000134012CD3D90A4B0022C3F87C21D3F825
:103400007C3102A8FFF70EFF08B10024F1E704B0F9
:1034100070BD00BF8068000000030050580000200D
:10342000006000402DE9F041044615461E4671B388
:103430000F4602F052FE002840F0998004F01F026F
:103440006309012B45D04FF0A04002F5E07350F81E
:103450002330002F3FD00C2141F0030123EA010368
:10346000002F3AD0397889000B4302F5E07240F81A
:103470002230434A04F1080132F8113023F00203EC
:103480009BB222F8113043F0010322F81130BDB194
:103490002F78D5F804802046FFF7C6FDF8B1B8F1C3
:1034A000000F66D1364A04F1080132F8113023F0DA
:1034B0001C039BB222F8113043EA870322F8113033
:1034C000002E5AD0726831682046FFF753FEBDE8DF
:1034D000F0812C48B9E70021BEE70021C4E7284A63
:1034E00004F1080132F8113023F02003DB04DB0C77
:1034F00022F81130B8F1000FD4D0032F3BD86B68FD
:103500001D7837B905F5A2751F4B002243F8252019
:10351000C8E7384602F0F8FD1B4B05F5A27253F8D8
:10352000221021F0030143F8221053F8221021F455
:103530004F3121F4407143F8221053F822C0210288
:1035400001F47C51000400F4403001434CEA0101D5
:1035500043F822106B039BB2094A04F1080132F8C8
:103560001100034343F0200322F811309AE7074883
:10357000ADE70648ABE70548A9E70548A7E700BF60
:103580005800002000030050006000400400AD0B14
:103590000000AD0BF8B504461546002955D00E467F
:1035A00002F0AAFD28B12046FFF728FD002840F0D0
:1035B000A2802046FFF72CFD18B17378012B00F094
:1035C0009C8006F1010CB71C04F01F026309012B5B
:1035D00057D04FF0A04102F5E07351F82300BCF141
:1035E000000F50D0022343F00103002F4DD04FF0C5
:1035F0000C0E43EA0E03002E4AD04FF4E06E43EA6D
:103600000E0320EA0300BCF1000F44D073785B0086
:1036100043F00103002F40D096F802C04FEA8C0C13
:1036200043EA0C03002E3BD0367836023343034383
:1036300002F5E07241F82230334A04F1080132F811
:10364000113043F0030322F81130002D57D02046EB
:1036500002F052FD002854D12B7803F5A2712B4AB9
:1036600042F82100284904F1080031F8102022F026
:103670002002D204D20C21F810206A7892B9244892
:10368000F8BD2449A7E70023ADE74FF0000EB0E7EF
:103690004FF0000EB3E70023BAE74FF0000CBFE78E
:1036A0000026C3E7AF78194803F5A27550F8251036
:1036B00021F4991121F4F85140F8251050F82560B3
:1036C000210201F47C51120402F440320A4339050C
:1036D00001F480110A43324340F825205B039BB27A
:1036E000094A083432F814100B4343F0200322F83F
:1036F00014300748C4E70848C2E70748C0E7044851
:10370000BEE70548BCE700BF58000020006000404D
:103710000000AD0B000300500400AD0B014B98609E
:10372000D96070475800002038B504460D46FFF7B1
:1037300065FC40B104F10800044B33F810305B0B1A
:103740002B70034838BD0348FCE700BF5800002039
:103750000000AD0B0400AD0B104B93F878300BB1AB
:103760000F48704710B50D4C6022002104F1100085
:1037700001F079FF0620FDF71BFE0A4B0022C3F87B
:103780007C21D3F87C214FF00042C3F804230123AD
:1037900084F878306367044810BD00BF58000020EB
:1037A0000500AD0B006000400000AD0B034B93F82B
:1037B0007800003818BF0120704700BF5800002073
:1037C00008B501460148FFF731FB08BDC8000020DD
:1037D00008B501460148FFF701FB08BDC8000020FD
:1037E00038B504460D46FFF709FC08B3204602F041
:1037F00083FCE8B12046FFF721FC830003F58073CA
:103800009BB203F1804303F5C04300221A601B689A
:10381000224A00F5A27152F8213043F0010342F828
:1038200021309DB3012303FA00F0C2F804032DE018
:1038300004F108031A4A32F81330C3F38203042B4D
:1038400012D0052B23D004F01F026309012B09D0ED
:103850004FF0A043D3F81035D34013F0010F18D028
:10386000032002E00F4BF5E7032004F01F02640978
:10387000012C10D04FF0A04102F5E07251F8223037
:1038800023F4403343EA004341F8223038BD02209C
:10389000EBE70220E9E70349EEE700BF00600040E4
:1038A000580000200003005010B50446FFF7A6FBA7
:1038B000A0B1204602F020FC80B12046FFF7BEFBFD
:1038C000012282400E4BC3F8082300F5A27053F882
:1038D000202022F0030243F820200EE004F01F0312
:1038E0006409012C0AD04FF0A04103F5E07351F8B0
:1038F000232022F4403241F8232010BD0149F4E78F
:10390000006000400003005010B50446FFF76CFB58
:1039100008B90C4810BD2046FFF7C6FF2046FFF748
:103920000DFC04F01F036409012C08D04FF0A042E5
:1039300003F5E073022142F823100348EAE7034A43
:10394000F6E700BF0400AD0B0000AD0B0003005014
:1039500038B501204FF4807300210C4603E040008D
:1039600004339BB20131072914D803F1804202F5D8
:10397000C0421268002AF2D00C4AD2F80423104246
:10398000EDD003F1804202F5C042002515601268B7
:103990000443E4E7054BD3F87C311BB92046FFF71D
:1039A0001FFC38BDFFF7D4FCF8E700BF0060004003
:1039B00008B501460148FFF711FA08BDD400002000
:1039C00010B5144C032323616361134AA261134BA6
:1039D000E3614FF4806323620023A3626362E362C6
:1039E00022660F4A62661022A2662367E366636757
:1039F0000C49E01D01F0D1FDBFF35F8F0A4920465D
:103A000001F0CBFDBFF35F8F2023A371BFF35F8F66
:103A100010BD00BF28090020A06A0000E0090020B6
:103A2000D0090020AC6A0000B06A0000034B00E03F
:103A30001833034A9342FBD3704700BF2C66000043
:103A4000A466000070B50646114B53F8204009E00B
:103A5000404217E0EB681870EA68537843F00103BE
:103A600053700834731C0A4A52F82330A3420DD90C
:103A70006568236828469847002DF2D00028EBD0CF
:103A80000028E5DBFF28E5DDFF20E3E770BD00BF90
:103A9000B86A000010B586B0114CB02303FB004497
:103AA00000EB40020F4B03EBC2030F4A05920122C9
:103AB00004920F22039200220292019200930B4B78
:103AC0004FF4A0720A494FF4B07C0CFB0011204661
:103AD00000F04AF9637B23F00403637306B010BD62
:103AE000C8010020E00D0020D06A0000C53E0000A3
:103AF0002014002008B50A4B01221A700220FFF79B
:103B0000A1FF01F08FF80320FFF79CFF00F090F970
:103B1000FCF764FC034A137B23F00103137308BD15
:103B2000F50F00207802002008B50146014A02483E
:103B3000FDF732FDF53A00007802002008B5034891
:103B4000034A121A002102F015FB08BDA80100204B
:103B5000F80F002010B50446FFF79CFF0B49B02377
:103B600003FB04110A4A04EB440302EBC303D960CC
:103B70001C7504EB8411074B03EB411303F502633F
:103B800004EB440402EBC404636010BDC8010020D0
:103B9000E00D00208015002070B586B000F0DCFD3F
:103BA000104D114BDD61114B05930123049300244B
:103BB00003940294019400940D4B4FF480620D49DC
:103BC000284600F0D1F806466B7B23F004036B73A4
:103BD000284602F0A4FB2046FFF7BCFF304606B0A3
:103BE00070BD00BF78020020E00D0020D86A000000
:103BF000F53A00000010002000B5ADB01D4B83F376
:103C000008881D4C636943F400736361E02384F802
:103C100022300025E57725766576A57684F8205054
:103C2000636A43F4E023636284F82350FDF70CFEDB
:103C3000FDF7A0FB4FF0FF33A362E362FDF720FF27
:103C4000FDF7B0FE01248DF80D408DF80C4026954F
:103C500027952995094BC3F808D0FFF7E7FE2846BA
:103C6000FFF7F0FE2046FFF7EDFEFFF795FFFFF7A9
:103C70005BFF00BFA01D002000ED00E0E00D002074
:103C800010B5064C002000E01C34054B9C4204D2C9
:103C9000204602F077FA0028F6DA10BD5401002021
:103CA0005401002030B583B00D464FF02004EFF3EF
:103CB000118184F31288BFF36F8F44696CB12C605B
:103CC00043691B684361836901338361002081F389
:103CD0001188BFF36F8F03B030BD00F1080C53EAB9
:103CE000020404D100232B606FF00B00EFE7009279
:103CF00001930246604600F003FC0028EBD1024B22
:103D00009B685B692B60E6E7E00D00204FF0200325
:103D1000EFF3118183F31288BFF36F8F0A4B9B6A15
:103D2000834204D11A6F084B9A6207E0134613B11D
:103D30001A6F8242FAD10BB1026F1A6781F31188B0
:103D4000BFF36F8F704700BFE00D002008B553EA46
:103D5000020102D102F07FFA08BD0249183000F0DA
:103D600053FEF9E7576300002DE9F04F85B0044694
:103D70000F4615461E46DDF838A0DDF83C90DDF80C
:103D80004080DDF84CB000F158038365C365129B99
:103D90000422119902F063FA2A463946204602F0BD
:103DA00042FA0546CDF80880CDF80490CDF800A081
:103DB0003346024639462046FDF7A4FB00236365DF
:103DC0002666C4F864A0C4F86890C4F86C804FF00C
:103DD0002003EFF3118283F31288BFF36F8F134B2D
:103DE000996A21679C6282F31188BFF36F8FBBF1E0
:103DF000000F13D01F22594604F1740001F0D7FBC5
:103E0000002384F89330094B9B685BB1D3F8A4304E
:103E1000C4F8A430284605B0BDE8F08F002384F82C
:103E20007430F0E7C4F8A430F4E700BFE00D0020E0
:103E300030B587B0214C14E0E36A0593236A0493FC
:103E4000E3690393A3690293636901932369009370
:103E5000E368A26861682068FFF786FF23685C65F5
:103E60003034174B9C42E7D300F0DEF9134C00E0EE
:103E70003034134B9C421CD2606AB0F1FF3FF7D044
:103E8000256820EAE070C117C90341EA5041C00328
:103E900040F2E733C0184FF47A724FF0000341F15B
:103EA0000001FCF72DF902460B462846FFF74EFFAE
:103EB000DEE700F0DBFB07B030BD00BF540100209F
:103EC0005401002008B501E0FDF75AFA4FF0200236
:103ED000EFF3118382F31288BFF36F8F02F023FB9D
:103EE000054B9861054B1B78002BEDD0FDF74EF884
:103EF0000028EBD1E8E700BFE00D0020F50F00201F
:103F00002DE9F04383B004461D464FF02003EFF344
:103F1000118783F31288BFF36F8FC16899B90029A5
:103F20004FD13A4B9B6893F90E3023610131E16028
:103F3000364B9B68A36087F31188BFF36F8F002017
:103F400003B0BDE8F08316468268304B9B689A4206
:103F5000E5D055EA06010CBF4FF001084FF000080C
:103F600031D092F90E90494693F90E0002F088F98B
:103F700081452FDC4FF00009009601952246394615
:103F8000234800F0BDFA0028DAD04FF02003EFF309
:103F9000118583F31288BFF36F8F23689C421FD073
:103FA000F3B1216993F90E0002F06AF90146204647
:103FB00002F071F9B0B9B9F1000F15D04FF0010856
:103FC00012E02369B1E787F31188BFF36F8F6FF0B9
:103FD0000F00B5E70146204602F05DF98146CBE7C8
:103FE0002169E4E74FF00108B8F1000F06D185F32D
:103FF0001188BFF36F8F6FF00A00A1E729460448CC
:1040000000F0F6F86FF00A009AE700BFE00D00201C
:104010000C0E00208268002A35D038B504461D4BAE
:104020009B689A4232D1DA7B013ADA73C368012B7A
:1040300005D9013BC36000F019FB002038BD4FF0EB
:104040002003EFF3118583F31288BFF36F8F0169AB
:1040500002F021F9204602F002FAA06060B190F966
:104060000E3023610023C0F8AC3002F058F9294625
:10407000094800F0BDF8DEE70023E36085F311880E
:10408000BFF36F8FD7E76FF0150070474FF0FF3029
:10409000D4E700BFE00D00200C0E002038B5044628
:1040A0004FF02003EFF3118583F31288BFF36F8F76
:1040B00002F0D5F948B10022C0F8AC2002F02FF987
:1040C0002946074800F094F838BDA368E268934297
:1040D00003D001221344A360F2E70022FAE700BFF5
:1040E0000C0E002010B582B04FF02004EFF31181C8
:1040F00084F31288BFF36F8F846844B1013C8460FD
:1041000081F31188BFF36F8F002002B010BD53EA16
:10411000020406D0009201930246054800F0F0F92F
:10412000F3E781F31188BFF36F8F6FF00F00ECE7B7
:104130000C0E0020B3F1FF3F08BFB2F1FF3F00D1EA
:10414000704708B50249183000F05EFC08BD00BF9A
:104150005763000010B5074B1C6804B910BDFEF78B
:1041600039FB0444044B1C610021024B186802F027
:10417000F1F9F3E7140E0020E00D002070B50446BD
:104180000D4600234FF02002EFF3118682F31288D0
:10419000BFF36F8F0EE00228B8BF02201860114BEA
:1041A0001D60114B9868FFF7D5FF86F31188BFF3A8
:1041B0006F8F0123A3B90C4B00221A61610CE3033A
:1041C00040F2E73018184FF47A724FF0000341F1D3
:1041D0000001FBF795FF054B1860002CDBDCDEE7E8
:1041E00070BD00BF100E0020E00D0020140E002056
:1041F00008B5084621B9EFF3058313B9012100E0A2
:10420000002111F0010F07D0064BDA699B689A4232
:1042100002D0FDF71FF903E080F31188BFF36F8F21
:1042200008BD00BFE00D002000234FF02002EFF397
:10423000118182F31288BFF36F8F09E0064B9A68F1
:10424000D37B013BD37381F31188BFF36F8F0123BD
:10425000002BF3D0704700BFE00D002038B50446B6
:10426000104802F055F8054670B184B90E4B9B68B2
:104270005A7B12F01F0F0AD1AA6942B9DA897F2A44
:1042800005D9094AD3610BE0074BDD68EDE7064B22
:104290009B68AB4202D02846FFF75CFF024BDD6112
:1042A00038BD00BF000E0020E00D002038B50546E7
:1042B000427B90F90D30002B28DB6B7B63F07F0392
:1042C0006B731A4B53F8204F9C422DD06CB1214692
:1042D000284601F0F6FF002820DC34B1134B5B6A5E
:1042E0009C4202D02468002CF0D1104B5A6A03F192
:1042F000200129606A6015605D620C4B9868A842D5
:1043000014BF00200120FFF7A9FF38BD02F07F0293
:1043100042730146064801F0F3FFCEE763686B6025
:104320002C601D606560E8E70024CFE7E00D002009
:10433000000E002038B50446074B9D686B7B13F0D8
:104340001F0F04D02846FFF705FF204638BD28463A
:10435000FFF7ACFFF6E700BFE00D002038B54FF0E7
:104360002003EFF3118483F31288BFF36F8F224B86
:104370009B68224A1268934218D021461F4A0025A2
:1043800015601F4A126872B3DA897F2A16D85A7BE1
:1043900012F01F0F1CD193F90E501A4A1268954261
:1043A00018DB194A934217D0012308E01846FFF79B
:1043B000D1FE84F31188BFF36F8F1BE0002393B10C
:1043C0000D4B1B69834209DD181A0B4B18610DE078
:1043D0000023F4E70023F2E70023F0E72046FFF78D
:1043E000A9FF014602E0044B00221A6181F3118803
:1043F000BFF36F8F38BD00BFE00D00200C0E002012
:10440000140E0020100E0020C801002038B5437B98
:1044100090F90D20002A2DDB044613F01F0F05D163
:1044200082690AB1002202E0012200E000220AB300
:1044300063F07F036373144B53F8205F9D4220D0D9
:104440006DB12946204601F03CFF002813DC35B150
:104450000D4B5B6A9D4202D02D68002DF0D10A4BB6
:104460005A6A03F120012160626014605C620020DE
:10447000FFF7F4FE38BD6B68636025601C606C60FC
:10448000F5E70025DCE700BFE00D002010B54FF098
:104490002003EFF3118483F31288BFF36F8F437B04
:1044A00013F0040F04D184F31188BFF36F8F10BD94
:1044B00023F004034373FFF7A9FF21460148FFF7E8
:1044C00097FEF4E7100E002010B50446427B90F9E9
:1044D0000D30002B08DB084B9868A04214BF002069
:1044E0000120FFF7BBFE10BD02F07F0242730146C0
:1044F000024801F005FFEEE7E00D0020000E00206D
:1045000010B50C461146064B9868064B1860DDE95D
:10451000022301F082FF2046FCF79CFF10BD00BF84
:10452000E00D00200C0E00202DE9F84304460E4655
:1045300000234FF02002EFF3118882F31288BFF3BB
:104540006F8F1F4608E012F0010711D1A67388F3A0
:104550001188BFF36F8F01231A46002B3DD1637B77
:1045600013F01F0FEFD1A1690029ECD10122EAE776
:1045700003F07F036373DFF868902146484601F03B
:10458000BFFEA673637B63F07F036373D9F80050AB
:104590004D4520D06DB12946204601F092FE0028FD
:1045A00013DC35B10F4B5B6A9D4202D02D68002DA4
:1045B000F0D10C4B5A6A03F1200121606260146053
:1045C0005C620120FFF74AFEC1E76B68636025600B
:1045D0001C606C60F5E70025DCE73846BDE8F88331
:1045E000000E0020E00D002038B50446183001F020
:1045F0007CFF00234FF02002EFF3118582F3128835
:10460000BFF36F8F10E0637B43F010036373154BB0
:104610009868A04214BF00200120FFF71FFE85F319
:104620001188BFF36F8F012363B9627B94F90D305A
:10463000002BE8DA02F07F02627321460A4801F09B
:104640005FFEE0E7074B9B68A34200D038BD4FF008
:104650002003EFF3118083F31288BFF36F8F01F013
:104660003AFEF3E7E00D0020000E002010B5002315
:104670004FF02002EFF3118482F31288BFF36F8FA3
:104680000CE00D4B9A68D37B0133D3730020FFF706
:10469000E5FD84F31188BFF36F8F0123002BF0D069
:1046A0004FF02003EFF3118083F31288BFF36F8F75
:1046B00001F011FE10BD00BFE00D0020F8B5437BF6
:1046C00013F0080F45D1054643F00803437303F088
:1046D000DF03437313F0800F2DD1AB685BB1284625
:1046E00001F0EDFD294601F00BFE6B7B23F0020388
:1046F0006B730023AB6005F1180001F0F6FE05F1C5
:1047000058073C68BC421ED0ECB1204601F0D7FDF2
:10471000214601F0F5FD637B23F00203637300265D
:10472000A66004F1180001F0E0FEC4F8AC60204679
:10473000FFF76CFEE5E703F07F034373014605488E
:1047400001F0DEFDC9E70120FFF788FD2846FFF7ED
:10475000DDFAF8BD000E002008B5044801F0AAFEFD
:1047600000210846FFF70AFD08BD00BFFC0D002030
:10477000F8B54FF02003EFF3118683F31288BFF3EF
:104780006F8F1C4CA1684B7B03F07F034B7304F1CC
:104790002007384601F0B4FDA5686B7B63F07F030A
:1047A0006B73246ABC4223D06CB12146284601F0C9
:1047B00088FD002816DC34B10E4B5B6A9C4202D0A7
:1047C0002468002CF0D10B4B5A6A03F120012960B8
:1047D0006A6015605D620120FFF740FD3046FCF71E
:1047E00039FEF8BD63686B602C601D606560F2E7A0
:1047F0000024D9E7E00D00202DE9F04150EA010343
:1048000038D004460E466FF001031B1A4FF0FF32FA
:1048100062EB0102012B72F100032FDB6FF0010547
:104820002D1A4FF02003EFF3118883F31288BFF3A2
:104830006F8F144FB868144B1860FFF745FEB868C7
:10484000224633461149183000F0DEF8BA68537B2F
:1048500043F0100353734046FCF7FCFD01F0A5FE46
:10486000281A63EB0303012873F1000300DA002028
:10487000BDE8F081FFF77CFF0020F9E701F095FE2D
:104880000519CEE7E00D00200C0E00205763000054
:1048900008B5B1F1FF3F08BFB0F1FF3F1AD0FFF7F5
:1048A000ABFF8446C217510141EAD06143011B1A94
:1048B00061EB0201880040EA93709B0013EB0C034C
:1048C00042EB0000C00040EA5370C3F3103343EAE8
:1048D000404008BD034B9868FFF786FE4FF0FF305D
:1048E000F7E700BFE00D0020014B9868704700BF5C
:1048F000E00D002038B54FF02003EFF3118583F36E
:104900001288BFF36F8F437B13F0080F04D085F339
:104910001188BFF36F8F38BD0446FFF7CFFE084BF9
:104920009B68A34204D085F31188BFF36F8FF2E731
:10493000EFF30583002BF6D12846FCF78BFDF2E759
:10494000E00D002008B50648064A121A064901F093
:1049500015FC064A0649074801F010FC08BD00BFD7
:1049600000000020A4010020A06B00000000000057
:10497000A06B000000000020034B1868984200D094
:1049800070470020FCE700BFD800002030B1044A87
:104990005268904201D0006870470020704700BF05
:1049A000D800002008B5044B1B680BB1002008BDDF
:1049B000FDF710FFFBE700BF180E002010B5FFF752
:1049C000DBFF0446FFF7EEFF7CB1236962691B1A27
:1049D00062EBE070B3F1004F70F1000208DA0028DA
:1049E00001DB184606E00023FBE76FF0004001E022
:1049F0006FF00040034B1B6913B1834200DA184685
:104A000010BD00BFE00D0020B3F1FF3F08BFB2F1C1
:104A1000FF3F7DD02DE9F047044692461D46816058
:104A200000234FF02002EFF3118782F31288BFF3C7
:104A30006F8F21E01AF1010845F10009FFF7B2FF7D
:104A400018EB000349EBE0702361606136E0511A16
:104A500066EB0303016143614368636020601C608F
:104A6000446000283ED0FFF787FF844241D087F39F
:104A70001188BFF36F8F0123002B47D153466FF08E
:104A80000101B1EB0A014FF0FF3060EB0502002A93
:104A9000D0DB204A116852685B1842EB05026FF0C8
:104AA0000101CB1A60EB020218461146012B72F18C
:104AB000000301DA0120002120616161FFF75CFF42
:104AC0000028CED00269466921696369914273EB7F
:104AD000060CBCDB891A63EB060321616361FFF7F7
:104AE00055FFEDE70C4B5A682360626014605C6010
:104AF000B9E7FFF763FF034618B1084A126982421B
:104B0000B5D000211846FDF733FEB0E7BDE8F087C9
:104B1000704700BF28030020D8000020E00D0020CF
:104B200070B50446FFF71AFC4FF02003EFF3118530
:104B300083F31288BFF36F8F284B1C6020E0284856
:104B400001684668891846EBE276016046609B1A68
:104B5000224A136000220023C4E90423204601F006
:104B6000ADFC85F31188BFF36F8FA368204698478B
:104B70004FF02003EFF3118583F31288BFF36F8F9B
:104B8000FFF7FAFE044640B102694169134B1B6806
:104B9000D817934270EB0101D1DA44B10F4B196879
:104BA000236962695B1A62EBE172236162610C4AFC
:104BB0000A4E3068136851681B1841EBE0711360AE
:104BC000516000243460FFF7F9FE2146FDF7D0FD67
:104BD00085F31188BFF36F8F70BD00BF180E0020E2
:104BE0002803002010B500234FF02002EFF31184BA
:104BF00082F31288BFF36F8F184619460CE0FDF759
:104C0000E9FD074A13685168C01841F1000184F3B7
:104C10001188BFF36F8F0123002BF0D010BD00BFB0
:104C20002803002008B5034A0349044800F004FAA9
:104C300008BD00BFC8680000E06A0000F06A00001C
:104C400010B50A4C23681BB101232360002010BD5E
:104C500000F0CEF80028F7D00138062803D8044B1E
:104C600053F8200010BD034810BD00BF1C0E0020EB
:104C7000186B0000FE8FFFFFBFF34F8F0549064BF7
:104C8000CA6802F4E0621343CB60BFF34F8F00BFEA
:104C9000FDE700BF00ED00E00400FA0510B4094B89
:104CA00009490A4C4FF0FE32C3F800244968C3F8A2
:104CB0000424C3F80824C3F80C240023C4F80035E6
:104CC00010BC084700B00250E000002000A00250D5
:104CD000D0E90012014BC3E900127047E000002048
:104CE00010B5044630B16368DB0602D500232360AB
:104CF000636010BD024B03485B689847F3E700BF51
:104D0000E0000020346B0000B0B1436893B1DB06D3
:104D10000ED5012350E8002F194640E8001C9CF0F6
:104D2000000FF7D1012AF5D0BFF35F8F0020704745
:104D300003487047034870476FF4E040704700BF76
:104D4000E98FFFFFEA8FFFFF68B143683BB1DB06E5
:104D500007D5BFF35F8F00230360184670470348F1
:104D60007047034870476FF4E0407047EA8FFFFFD9
:104D7000E98FFFFF10B5044620B100221123226005
:104D8000636010BD0148FFF789FFF6E75C6B000028
:104D900070B5D0E90023134C134D6360D0E90230A5
:104DA000C4E902302260114B0868186048685860F6
:104DB00088689860D1E90301D8601961D5F8183185
:104DC000DB060DD50023C5E94533C5E96E3305F58E
:104DD0008A709047236805F5DC70BDE8704018477D
:104DE00070BD00BFF0000020340E00200001002044
:104DF00038B500F02FF820B1032400F063F8204606
:104E000038BD00F031F898B900F0ACF898B90F4D02
:104E1000D5F828391B0EF02B08D1D5F8242A0C4BD5
:104E20009A420AD0072400F017F8E6E70624FAE7CA
:104E30000424204638BD0024F5E7012000F092F854
:104E400004460028F7D1C5F80C0AD8E700B0025094
:104E50000000E0200020704700207047014BC3F89D
:104E6000040A704700B0025010B5114800F048F82D
:104E700000B110BD0F4800F043F80028F9D10E4CE6
:104E8000204600F03DF80028F3D10C4B0C481C6084
:104E900000F036F801460028EBD100F02DF804466A
:104EA00008B1204610BD00F03FF82046FAE700BFE9
:104EB000380100202C010020340100203C0100209A
:104EC0003001002008B5084800F024F8074800F039
:104ED00021F8074800F01EF8064800F01BF8BDE86E
:104EE000084000F00BB800BF380100202C01002062
:104EF000340100203001002000207047704700BFBF
:104F000008B5034B02681B6810689847002008BD6D
:104F1000F000002008B5034B02685B6810689847F2
:104F2000002008BDF000002070B5094C094D206933
:104F3000AB68984718B1084B08485B689847084A1F
:104F4000EB68206900211160BDE87040184700BF80
:104F500000010020F0000020E0000020806B000035
:104F6000300E002070B51B4D1B4E0446B2682869F8
:104F70009047F8B95CB1194C2368B3B1012B1BD031
:104F8000013B23602869F3689847002070BD134CEB
:104F9000216841B9124B0122C3F80025114AD2F809
:104FA0001039002BFBD101312160F3682869984743
:104FB000002070BD0C4870BD0A4AD2F81039002B91
:104FC000FBD1074A6FF07E40C2F80035FFF746FF7D
:104FD0002368D5E700010020F0000020300E0020FB
:104FE00000A0025000B00250E98FFFFF024658B106
:104FF000436803F00303012B03D0032B07D103689D
:1050000043B10020906070476FF0150070476FF05B
:10501000150070476FF0150070470346426802F0B4
:1050200003028160032A03D1006800225A6070479E
:105030000020FAE7002070470FB400B583B004A940
:1050400051F8040B0191FBF7FFF903B05DF804EB95
:1050500004B0704701F00703018B21F007011943E9
:10506000018370472DE9F04106460F46904681685E
:1050700019B10C4631B10C6804E00C4602E023463D
:1050800021461C4659B14D6843463A463046A8472A
:10509000002CF4D02346002CF2D02368F0E7BDE8C2
:1050A000F081038B13F0070303D102680AB10320D8
:1050B0007047022B03D0012B06D000207047428B93
:1050C000002AF8D10420704703680BB1052070470F
:1050D0000020704710B504468C46038B002A07DB7E
:1050E00003F007035A1F012A0ED9042B33D010BD39
:1050F000D0E900018CE803000023236063600121F4
:105100002046FFF7A7FFF2E7D0E900018CE8030093
:10511000002222606260062B18D1DCF800303BB11F
:10512000628B01326283002BF9D01B68002BF6D111
:1051300002212046FFF78EFF2046FFF7B2FF00282E
:10514000D5D0238B43F020032383D0E700212046D2
:10515000FFF780FFF0E70021FFF77CFF2046FFF715
:10516000A0FF0028C3D0238B43F020032383BEE796
:1051700058B110B50C4659B1081DFFF737FF18B9E3
:10518000A36833F0030306D110BD6FF0150070471C
:105190006FF01500F8E76FF01500F5E72DE9F04125
:1051A00007460C4616461D461946201DFFF735FFDB
:1051B00028B180462B46324621463846C047BDE8D6
:1051C000F0812DE9F04180460C4617461E4604E06A
:1051D00033463A464046FFF7E1FF216831B10D689A
:1051E000256063688B42F3D16560F1E7BDE8F0812B
:1051F00008B54FF0200CEFF311828CF31288BFF347
:105200006F8F41610121FBF72FF908BD034670B193
:1052100081B10A688AB14A6892B10020186058606A
:105220009860D860186158619861196170476FF093
:10523000150070476FF0150070476FF0150070474C
:105240006FF015007047F8B504460F46FFF790FF62
:10525000061E37DB4FF02003EFF3118283F3128831
:10526000BFF36F8F258B05F00705638B4FF6FF713A
:105270008B422FD02E46022D0CD08DB1042D0FD095
:10528000062D0DD0052D1FD06FF0040600210B4612
:1052900008460AE00133638301210023184604E035
:1052A000B5FA85F35B090021012028B100203860A0
:1052B0006068A8B107606760ABB982F31188BFF37B
:1052C0006F8FA9B93046F8BD6FF0850600210B46F7
:1052D0000846EAE76FF00A0600210B460846E4E7B5
:1052E00067602760E8E702212046FBF7BDF8E9E7A1
:1052F00000232A4639462046FFF750FFE2E708B56B
:105300000446084611461A46A047FFF7EDFAFCF797
:105310002FFB84460268002005E000EB800001328C
:1053200003EB400030381378A3F130010929F4D998
:10533000CCF8002070472DE9F04F83B004460D46AD
:1053400001929A460C9ED378A3F1410B6F2B0FD09C
:1053500006D9702B0FD0782B10D14FF0100926E012
:10536000582B02D04FF00A0921E04FF010091EE03F
:105370004FF008091BE04FF0100918E04FF00A0940
:1053800015E0BBF1190F21D8D2B23732D2B206F8EC
:10539000012D3A46434620462946FAF7B1FEBC4263
:1053A00075F1000316D3564514D904460D464FF047
:1053B00000084F464A46434620462946FAF7A0FED3
:1053C000092ADED8D2B23032D2B2E0E7D2B25732B6
:1053D000D2B2DCE7019B1B7813F0200F05D0B9F1A6
:1053E000080F06D0B9F1100F09D0304603B0BDE860
:1053F000F08F019A937843F008039370F5E7019AD0
:10540000937843F010039370EFE72DE9F0410746DE
:105410000E4614469846002506E0314614F8010B66
:10542000B847002809DB01354445F6D3B8F1000F31
:1054300002D12378002BF0D12846BDE8F0817047D7
:1054400008B50020FBF72EFD08B500F079FE08BD79
:1054500008B501460068FFF7F7FF08BD08B5002151
:105460000120FFF7F1FF08BD08B5FBF7D3FFFCF7FC
:10547000C9F808BD0020704700230B70704708B5BD
:1054800000231370CB1E092B1AD8DFE803F005099F
:105490000D111919191919141146FCF74DF910E0DD
:1054A0000021FCF7F9F80CE00021FCF7B9F808E05E
:1054B000FCF7E0F805E01146FFF7DEFF002000E012
:1054C000002008BD43685A1E134206D11F2B06D97F
:1054D00003681A4205D00020704700207047002062
:1054E000704701207047072805D810B50446FCF71F
:1054F00079FA204610BD6FF01500704700B585B0F1
:105500000B6801934B688A68202B12D9B3F1004FC6
:1055100011D8013BB3FA83F3C3F11F035B0003F01F
:105520003E031343039301A9FFF7DDFF05B05DF8C8
:1055300004FB0823F5E73E23F3E72DE9F843804613
:105540000F4699461646002509E02146F0B2FFF7BE
:10555000D5FF064610F1160F14D001360135BD42B5
:1055600010DA05EB450408EB84046268002AF5D0E4
:10557000B9F1000FE9D02046FFF7A4FF0028E4D1DD
:105580006FF015063046BDE8F88308B5FCF73EFA23
:1055900008BD08B5FCF744FA08BD024602E002F86F
:1055A000013B01310B78002BF9D113707047034692
:1055B000A2B110B40C782CB103F8014B0131013ABF
:1055C000002AF7D122B1002103F8011B013AF9E7C3
:1055D00010BC7047002103F8011B013A002AF9D1E1
:1055E00070470346002001E0013301301A78002A99
:1055F000FAD170470346002001E0013301301A78E8
:105600000AB18842F9D3704780EA010313F0030F0F
:1056100001D0034623E0034613F0030F0FD00AB373
:1056200011F801CB03F801CB013AF5E711F801CBF2
:1056300003F801CB013A002AF8D110BC7047032AC5
:105640000DD910B451F8044B43F8044B043A032A23
:10565000F8D8F0E711F801CB03F801CB013A002AA2
:10566000F8D1704770475FFA81FC034602E003F807
:1056700001CB013A13F0030F02D0002AF7D10FE05B
:10568000C9B241EA012141EA0141032A06D943F89E
:10569000041B043AF9E703F801CB013A002AFAD1D6
:1056A00070474FF0FF3070474FF08053D3F83021F0
:1056B000D3F83431082A01D000207047022B01D0E2
:1056C0000020704701207047062800D070474FF037
:1056D00080430122C3F80025BFF34F8F20BFFDE7B1
:1056E000002383F31188BFF36F8F7047006901EBCC
:1056F00041018900383108447047406800EBC1001F
:1057000070470069C1EBC10100EB8100704708B52B
:10571000C9B2FFF7EBFF806800F0070008BD4FF04B
:105720002003EFF3118283F31288BFF36F8F0368B6
:1057300013F0C00301D08B4207D101230360002086
:1057400082F31188BFF36F8F70474FF0FF30F7E798
:105750004FF02003EFF3118283F31288BFF36F8FB2
:10576000036803F0C00C03F00703012B08D08C453D
:1057700009D04FF0FF3082F31188BFF36F8F70476D
:1057800001600020F7E76FF07700F4E74FF02003A7
:10579000EFF3118283F31288BFF36F8F036803F076
:1057A000C00343F00203036082F31188BFF36F8FDD
:1057B0007047F8B506460C46FFF798FF056847683E
:1057C000002340F8083BFFF7E1FF1DB13A462146B0
:1057D0003046A847F8BD70B506461546CCB22146FE
:1057E000FFF784FF29460830FFF799FF002806DB02
:1057F00021463046FFF781FF43689847002070BD7F
:1058000008B58022FFF7E7FF08BD2DE9F041064605
:1058100090461F46CDB22946FFF768FF0446069919
:105820000830FFF795FF002809DBC4F800806760A7
:1058300029463046FFF761FF036898470020BDE81E
:10584000F08110B582B080240094FFF7DEFF02B033
:1058500010BD10B51446C9B2FFF753FF0021A04791
:1058600010BD08B5012000F0E4FB08BD08B500201C
:1058700000F0DFFB08BD08B5012000F02AFC08BDE0
:1058800008B5002000F025FC08BD08B51046FEF75D
:1058900005FC08BD20F4FC7020F001004005400D1F
:1058A00040F20623984233D016D806282CD006D9C9
:1058B000B0F5007F0DD101230B700020704700B3BD
:1058C000022803D104230B70002070476FF01500ED
:1058D00070476FF01500704740F2024398421BD0AA
:1058E000B0F5C06F03D103230B7000207047B0F5F3
:1058F000806F03D102230B70002070476FF01500FA
:10590000704700200870704706230B700020704716
:1059100007230B700020704705230B700020704791
:1059200010F0100F04D110F0200F03D100207047A9
:10593000032070470120704743685B68D3F8103537
:105940000B600020704743685B68D3F80405424051
:105950000A404240C3F804250020704743685B6852
:10596000C3F808150020704743685B68C3F80C153E
:105970000020704743685A68D2F804354B40C2F89B
:10598000043500207047B0F5800F07D0B1F1C06F2B
:105990000DD0B1F1007F08D001207047B1F1007F38
:1059A00001D0052070470420704702207047032073
:1059B000704710B4046904F1040C6368FBB1002063
:1059C0000DE00B686360DCF80400814212D1CCF872
:1059D00004300FE0CCF804000CE018461B6863B1FB
:1059E0009942FAD10028ECD00B680360DCF804304F
:1059F0009942EFD000230B60012303B962B172B169
:105A000063680B606160DCF804300BB1002007E0D4
:105A1000CCF80410002003E06FF0150000E0002037
:105A200010BC704770B500F01F044009FCF754FA31
:105A3000D8B1064603690125A540596819B10C463D
:105A400049B10C6807E00C4605E064B1234604B197
:105A5000236821461C4641B18A682A40F5D04B682C
:105A600030469847F1E72346F3E770BD43681B686B
:105A70004FF02001EFF3118281F31288BFF36F8F93
:105A8000D3F8201131B10021C3F82011D3F820112F
:105A90000121D96082F31188BFF36F8F704738B549
:105AA00045682C68D4F8043313F4807F02D0D4F80E
:105AB0002031D3B96B6813F0100F15D04FF02002CE
:105AC000EFF3118382F31288BFF36F8FD4F858215C
:105AD00012B10022C4F800254FF48002C4F8082354
