:10000000602D0020B9260000D19300007126000069
:10001000712600007126000071260000000000001B
:100020000000000000000000000000003922000075
:100030007126000000000000E12100007126000090
:1000400019230000192300001923000019230000C0
:1000500019230000192300001923000019230000B0
:1000600019230000192300001923000019230000A0
:100070001923000019230000192300001923000090
:100080001923000019230000192300001923000080
:100090001923000019230000192300001923000070
:1000A0001923000019230000192300001923000060
:1000B0001923000019230000192300001923000050
:1000C0001923000019230000192300001923000040
:1000D0001923000019230000192300001923000030
:1000E0001923000019230000192300001923000020
:1000F0001923000019230000192300001923000010
:1001000053B94AB9002908BF00281CBF4FF0FF317E
:100110004FF0FF3000F00CB8ADF1080C6DE904CEE3
:1001200000F008F8DDF804E0DDE9022304B07047D0
:10013000704700BF2DE9F04F07468C460846099EE0
:1001400015463C461946002B40F0C6808242B2FA62
:1001500082F746D94FB1C7F1200E24FA0EFE00FAFD
:1001600007F3BD404EEA030CBC404FEA15481FFAA6
:1001700085FEBCFBF8F9220C08FB19C309FB0EFA3B
:1001800042EA03439A4528D9EB1809F1FF3004D21B
:100190009A4502D9A9F102002B44A3EB0A03A4B2A9
:1001A000B3FBF8F208FB123302FB0EFE44EA0344F1
:1001B000A64514D92C1902F1FF3303D2A64501D963
:1001C000931E2C44A4EB0E0443EA00401EB1FC40F5
:1001D000002334607360BDE8F08F4846DDE71346C6
:1001E000F0E702B9FFDE87BB831A01214FEA154E03
:1001F000AAB2B3FBFEFC200C0EFB1C330CFB02F876
:1002000040EA0343984563D9EB180CF1FF3004D260
:10021000984502D9ACF102002B44A3EB0803A4B229
:10022000B3FBFEFC0EFB1C330CFB02F244EA03445E
:10023000A2424FD92C190CF1FF3304D2A24202D9A9
:10024000ACF102032C44A41ABEE7C7F1200C20FA3B
:100250000CF800FA07F324FA0CFCBD404CEA030248
:100260004FEA154EABB2B8FBFEFC110C0EFB1C8026
:100270000CFB03F941EA0040814504FA07F423D955
:1002800028180CF1FF3104D2814502D9ACF10201EA
:100290002844A0EB090092B2B0FBFEFC0EFB1C0050
:1002A0000CFB03F842EA004398450FD9EB180CF118
:1002B000FF3204D2984502D9ACF102022B44A3EBE1
:1002C000080342EA014191E76146E2E76246F6E748
:1002D0006046A2E76346B6E7834205D90EB1C6E998
:1002E00000700021084676E7B3FA83F181B98342B2
:1002F00001D3BA420AD8BC1A60EB030301209C4622
:10030000002E68D0C6E9004C002164E70846F7E7F4
:10031000C1F1200C8B4022FA0CF41C4302FA01F5C7
:1003200000FA01F327FA0CF220FA0CFB4FEA144909
:100330001343BBFBF9F81FFA84FE09FB18BB1A0C28
:1003400008FB0EFA42EA0B42924507FA01F73ED942
:10035000A21808F1FF3004D2924502D9A8F1020098
:100360002244A2EB0A029BB2B2FBF9F809FB182265
:1003700008FB0EFE43EA024296452AD9A21808F16C
:10038000FF3304D2964502D9A8F10203224443EA7E
:100390000040A0FB0593A2EB0E029A42CE4698467F
:1003A00002D306D14F4504D2B9EB050E63EB040826
:1003B000013886B1B7EB0E0362EB080707FA0CFCB5
:1003C000CB404CEA0303CF40C6E900379CE74046E8
:1003D000C7E74346DBE73146FDE600002DE9F84F6D
:1003E00005460E461446D0F808A0D0F804B0D0F860
:1003F000108012F0FC6F36D104F03003302B43D064
:1004000004F00213022B50D004F00603042B5DD03D
:1004100014F4402702D014F4003F65D0B7F5402F04
:1004200074D014F4801F05D027B114F0010F01D04F
:1004300084F4402424F48019DBF800300127B7400D
:100440003B4275D014F0010F00F08480D8F80030E2
:100450003B43C8F80030DAF800304A4631462846B7
:100460009847BDE8F88F3F4F40F2B5233A463E49E2
:100470003E4808F08AFF3E4808F087FF40F2B52169
:10048000384608F07BFFB7E7364F4FF42E733A46F5
:100490003849364808F079FF374808F076FF4FF4BE
:1004A0002E71384608F06AFFAAE72E4F4FF42F73DB
:1004B0003A4632492D4808F068FF314808F065FF98
:1004C0004FF42F71384608F059FF9DE7254F4FF440
:1004D00030733A462B49254808F057FF4FF43071E6
:1004E000384608F04BFF93E7DFF8789040F2C323DB
:1004F0004A4625491D4808F048FF244808F045FFB2
:1005000040F2C321484608F039FF87E7DFF85490EE
:1005100040F2C7234A461E49144808F036FF1D48DA
:1005200008F033FF40F2C721484608F027FF78E77C
:10053000DFF830B04FF435735A4617490B4808F0CE
:1005400024FF164808F021FF4FF43571584608F093
:1005500015FF77E7D8F8003023EA0703C8F8003022
:1005600079E700BF38A400006CA40000CCA4000010
:10057000ECA4000010A500004CA500008CA5000014
:10058000C4A5000018A600004CA6000094A6000018
:10059000D0A6000014A7000040A7000080A700001C
:1005A00010B54FF0FF324FF0FF33064806F016F952
:1005B000044682684168044808F059FC204609F066
:1005C000B0FDEEE7AC02002094A700002DE9F04F4B
:1005D00087B081468B460192006809F071FCA8B192
:1005E000D9F8000099F80410B9F8062042F4003256
:1005F000FFF7F4FE0646002863D0D9F8083099F8D2
:1006000004200146494808F032FC05E0D9F80030E2
:100610001968474808F02BFC07B0BDE8F08F40F29E
:100620009243444A4449454808F0AFFE444808F024
:10063000ACFE40F292413F4808F0A0FE53E03D4F2F
:100640004FF48D633A463C493C4808F09EFE3C48D6
:1006500008F09BFE4FF48D61384608F08FFE51E0A4
:10066000AB68DB6841462846984700230393049310
:100670000593019B049305960C2009F05BFD04464D
:10068000002847D00C220DEB0201204608F068FF3D
:1006900021462C4809F0B0FC2BEAEB70C117C903C6
:1006A00041EA5041C00340F2E733C0184FF47A7278
:1006B0004FF0000341F10001FFF722FD07F0A2FB1C
:1006C0000136D9F8005099F80480002E06F0010494
:1006D000B8BF64426B68D5F810A01B68012707FA01
:1006E00008F73B429BD0DAF800301F4202D0B4FA40
:1006F00084F464096B681B68012202FA08F813EAA3
:10070000080F9CD0002CABD1AB681B694146284632
:100710009847AAE70C4D60232A460C49074808F081
:1007200034FE6021284608F029FEABE7D0A7000080
:10073000B0A7000038A4000040A70000CCA400002F
:1007400080A70000AC02002004A8000014A800004C
:1007500008B5002264210248FFF738FF08BD00BF3A
:1007600090A8000008B501224FF47A710148FFF704
:100770002DFF08BD9CA8000008B5002241F2883179
:100780000148FFF723FF08BDA8A8000008B5012213
:100790004FF4FA710148FFF719FF08BDB4A8000033
:1007A00038B50446436803F003038160022B03D984
:1007B000032B02D100680EE063B9084D45232A4699
:1007C0000749084808F0E1FD4521284608F0D6FD14
:1007D000002000E000200023636038BDC0A80000B6
:1007E00090A60000CCA4000008B50B6801330B6094
:1007F000014B1B68984708BD00000020014B1860A2
:10080000704700BF0000002000B583B002460B46D1
:100810000021019101A9034800F072FE03B05DF8C8
:1008200004FB00BFE907000038B504468C46838B03
:10083000002A14DB03F007035A1F012A1BD9042BDB
:1008400050D02F4C40F21B1322462E492E4808F060
:100850009CFD40F21B11204608F090FD38BDD0E908
:1008600000018CE80300002323606360012120461F
:1008700008F00BFBF2E7D0E900018CE8030000224E
:1008800022606260062B0FD0052B1DD1002120466F
:1008900008F0FBFA204608F01FFB0028DED0A38BEF
:1008A00043F02003A383D9E7DCF800303BB1E28BAF
:1008B0000132E283002BF9D01B68002BF6D1022114
:1008C000204608F0E2FAE5E70D4D40F209132A460A
:1008D0000E490D4808F059FD40F20911284608F06C
:1008E0004DFDD3E7002108F0D0FA204608F0F4FAD5
:1008F0000028B3D0A38B43F02003A383AEE700BF4F
:10090000E4A8000090A60000CCA4000008A9000004
:100910002DE9F04F83B004461646838B03F007079A
:1009200003F008080D4631B1B8F1000F12D10023D1
:1009300000930193AAE0DFF8E09240F233134A46B5
:10094000B649B74808F021FD40F23311484608F097
:1009500015FDE9E7012D13D0022D16D1A38B43F02D
:100960002003A3831434204605F0B8FA002800F0D1
:100970009C8186F31188BFF36F8F03B0BDE8F08FC1
:10098000A38B43F01003A383ECE7A34D4FF49E73B6
:100990002A46A449A24808F0F8FC4FF49E71284664
:1009A00008F0ECFCDAE7204608F096FA05466FE01E
:1009B000D4F818904A4669462046FFF735FF0025CF
:1009C00011E0002F40F081802368002B00F08B8025
:1009D00023691D68002D00F094800621204608F050
:1009E00054FA4FF00009A38B03F00708B84500F054
:1009F0000B81A268002A00F00981012217461AB96A
:100A0000009A002A00F0048143F00803A38304F154
:100A1000140A504605F062FA002800F0158186F3AA
:100A20001188BFF36F8F002F40F01F81009B2BB107
:100A30004B4642466946204608F090FA15B17A497D
:100A40002046A8474FF02003EFF3118683F3128866
:100A5000BFF36F8F504605F031FA002800F00B818C
:100A6000504605F04BFAA38B23F00803A383A38B16
:100A700013F0100F00F00F8123F01003A383012562
:100A8000A78B07F00707002D3FF46CAF022D8AD02B
:100A9000002D3FF467AF012D8AD0032D91D0042D96
:100AA0003ED0052D40F0A080012F72D12368002B8D
:100AB0007DD023699D68002D00F0878005212046A8
:100AC00008F0E3F94FF000098DE7534D4FF4AB7395
:100AD0002A465649524808F058FC4FF4AB71284654
:100AE00008F04CFC70E74C4D40F257132A46504931
:100AF0004B4808F04AFC40F25711284608F03EFCEB
:100B000066E7DFF814814FF4AD7342464949444823
:100B100008F03BFC4FF4AD71404608F02FFC5CE759
:100B2000022F0BD1E38BBBB923695D6815B3042198
:100B3000204608F0AAF94FF0000954E7364D40F27C
:100B40005D132A463C49364808F01FFC40F25D110F
:100B5000284608F013FCE5E72F4D4FF4AF732A4603
:100B600036492F4808F011FC4FF4AF71284608F0C1
:100B700005FCD9E7DFF8A08040F2611342462D4919
:100B8000274808F002FC40F26111404608F0F6FBED
:100B9000CDE7214D4FF4B2732A462949204808F089
:100BA000F4FB4FF4B271284608F0E8FB7EE71A4DDB
:100BB00040F265132A461E49194808F0E6FB40F248
:100BC0006511284608F0DAFB73E7DFF84C804FF434
:100BD000B47342461749124808F0D7FB4FF4B4717A
:100BE000404608F0CBFB69E70B4D40F26B132A46F9
:100BF00014490B4808F0C9FB40F26B11284608F075
:100C0000BDFB0025A946EEE60022F7E60022F5E648
:100C1000002D7FF4F9AE2AE7E4A8000030A9000017
:100C2000CCA4000040A90000E50C000054A900007D
:100C300060A9000084A900009CA90000B4A90000DC
:100C4000C4A9000090A60000DFF880B0B9235A467E
:100C50001F49204808F099FB51461F4808F095FBB2
:100C6000B921584608F08AFBD9E64A464146204653
:100C700008F013F9DAE6154D8E232A461749154870
:100C800008F083FB5146164808F07FFB8E2128466A
:100C900008F074FBE4E613F0200F04D023F02003E7
:100CA000A3830225ECE60025EAE6084DB9232A468F
:100CB0000749084808F069FB2146074808F065FB2A
:100CC000B921284608F05AFB53E600BFDCA9000012
:100CD0000CAA0000CCA4000024AA00003CAA00003A
:100CE00054AA00002DE9F04104460D4600F1140617
:100CF0004FF02003EFF3118783F31288BFF36F8F58
:100D0000304605F0DBF850B1304605F0F7F8A56144
:100D10003A4601212046FFF7FBFDBDE8F081DFF8F0
:100D200020808E2342460749074808F02EFB3146B3
:100D3000064808F02AFB8E21404608F01FFBE3E737
:100D4000DCA900003CAA0000CCA4000054AA0000CA
:100D50002DE9F84F0446884608F0D7F8061E58DB00
:100D600004F114074FF02003EFF3118983F3128885
:100D7000BFF36F8F384605F0A1F8E8B1384605F0AB
:100D8000BDF8A58B05F00705E38B4FF6FF72934284
:100D900056D02E46022D1FD02DB3042D23D0062D64
:100DA00021D0052D53D0012D36D16FF004064FF020
:100DB000000A534652461CE03C4D8E232A463C49CD
:100DC0003C4808F0E2FA39463B4808F0DEFA8E214A
:100DD000284608F0D3FAD1E70133E3834FF0010A44
:100DE00000231A4605E0B5FA85F35B094FF0000AC7
:100DF000012242B10022C8F80020626872B3C2F832
:100E00000080C4F8048073B34A4602212046FFF7ED
:100E10007FFD3046BDE8F88F284E40F2C9133246B8
:100E20002749244808F0B1FA40F2C911304608F0C9
:100E3000A5FA6FF004064FF0000A53465246D8E771
:100E40006FF00A064FF0000A53465246D1E76FF0A2
:100E500085064FF0000A53465246CAE7C4F804809C
:100E6000C4F80080CFE7384605F038F868B189F358
:100E70001188BFF36F8FBAF1000FCAD000232A4642
:100E80004146204608F057F8C3E7DFF820B0B92301
:100E90005A460C49074808F078FA39460A4808F0DB
:100EA00074FAB921584608F069FAE0E7DCA90000B5
:100EB0003CAA0000CCA4000054AA0000E4A8000052
:100EC000C4A900000CAA000024AA0000002945D0F3
:100ED0002DE9F8430F460468204608F0FFF8054660
:100EE000C60006F1020834F8083013F0010F13D0E1
:100EF00034F8083005EB530334F833209B1A9D4235
:100F00001BD12644738823F00103738029462046B1
:100F100008F000F9BDE8F883DFF84490AC234A46B6
:100F20001049114808F031FA3946104808F02DFAF6
:100F3000AC21484608F022FADAE7DFF82480B4232F
:100F400042460B49084808F020FA3946094808F09B
:100F50001CFAB421404608F011FAD2E7704700BFEE
:100F60006CAA000090AA0000CCA40000A4AA000073
:100F7000DCAA000004AB00002DE9F8430C4615463E
:100F800006684B4203EA010831EA030341D0A1EBB2
:100F90000804B8F1030F47D84746631E234245D1E2
:100FA000002D69D0B368B3EBD50F67D96119C91BA0
:100FB0000B31C908304608F0DEF8074600285FD03C
:100FC0000146304608F007F84044204401386442A6
:100FD0000440A4EB08042544073525F00705214605
:100FE000304608F07BF88046AD1BED1087422FD3CA
:100FF0004FEAC80706EBC8035B8808EB53039D4222
:1010000030D33E44738843F0010373802046BDE82B
:10101000F883042903D94FF000080427BDE71146DF
:1010200008F0E4F80446F1E70427B6E7DFF8549047
:101030004FF4A0734A461449144808F0A6F914481E
:1010400008F0A3F94FF4A071484608F097F9A7E714
:1010500002463946304608F00AF83946304608F06C
:101060004DF8C5E72A464146304608F000F82946C3
:10107000304608F043F8C4E70024C7E70024C5E77A
:101080000024C3E76CAA000040AB0000CCA4000021
:101090005CAB00002DE9F04706460D461446B2F55C
:1010A000802F22D2042C31D9221FEC1D24F00704FA
:1010B000154425F007052D1B4FEAD508172D36D905
:1010C0003460C4F808800023E360B8FA88F6C6F1FB
:1010D0002007C6F12406B60007364FEAD60909F103
:1010E0000103434534D8002349E0384F40F2E3136D
:1010F0003A463749374808F048F9374808F045F983
:1011000040F2E311384608F039F9CBE72F4F4FF49E
:10111000F5733A4631492F4808F037F9304808F05E
:1011200034F94FF4F571384608F028F9BCE7274F39
:1011300040F2F3133A462B49264808F026F928488E
:1011400008F023F940F2F311384608F017F9B7E731
:10115000DFF878A04FF40173524623491D4808F088
:1011600014F91F4808F011F94FF40171504608F0C6
:1011700005F9B8E71A1D002144F822100133BB42DB
:10118000F8DB4FEA49039BB263800022228043F0E0
:1011900001036380A8EB09084FEA480126F007061F
:1011A000B31CE15224F8069025F00703A91C6252F3
:1011B000254424F803806B8843F001036B80494683
:1011C000204607F09BFFBDE8F08700BF6CAA000037
:1011D0007CAB0000CCA4000094AB0000ACAB0000E2
:1011E000D0AB0000ECAB000018AC000070B582B0D2
:1011F000044600230360436083604B78252B02D0B4
:101200004E1C01251FE0881CE37045E1237843F064
:1012100004032370B5B1013614E0237843F00803CA
:101220002370F7E7237843F010032370F2E7237865
:1012300043F020032370EDE7237843F0400323704D
:10124000E8E7002545B33378203B102BF9D801A2FD
:1012500052F823F025120000431200004312000050
:101260002F1200004312000043120000431200003E
:10127000431200004312000043120000431200001A
:101280001B120000431200000D1200004312000068
:101290004312000039120000237803F04403442B6A
:1012A0005FD00196237843F08003237033782A2B94
:1012B0005CD001A807F0CCFF019B9E420FD02378A1
:1012C00043F0800323706060DBB2C3F34003002867
:1012D00054DB00221343227863F341022270019B06
:1012E00001931B782E2B14BF00230123627863F334
:1012F00041026270002B43D0019B5A1C01925B7823
:101300002A2B3FD001A807F0A3FFA0602378C3F3E6
:10131000400300283EDB00221343227863F341029E
:101320002270019803784C3B2E2B00F29D80DFE861
:1013300003F0909B9B9B9B9B9B9B9B9B9B9B9B9B4B
:101340009B9B9B9B9B9B9B9B9B9B9B9B9B9B339B55
:10135000579B459B9B9B9B9B9B9B899B9B9B9B9B89
:10136000820023786FF3861323709AE7637843F043
:1013700001036370334601330193B1E70122A9E70A
:101380000198CFE7637843F004036370104601309F
:101390000190C7E70122BFE7421C4378682B06D0C3
:1013A0006378022161F3C603637010461EE0637820
:1013B000012262F3C6036370023017E0421C4378D7
:1013C0006C2B06D06378032161F3C603637010466B
:1013D0000CE06378042262F3C6036370023005E018
:1013E0006378052262F3C6036370013010F8013B95
:1013F000E370A3F14102372A7DD8DFE802F05E7C7A
:101400007C7C5E5E5E7C7C7C7C7C7C7C7C7C7C7C76
:101410007C7C7C7C7C4F7C7C7C7C7C7C7C7C5E7C57
:101420004F3A5E5E5E7C3A7C7C7C7C654F717C7C56
:10143000717C4F7C7C4F6378062262F3C603637035
:101440000130D3E76378072262F3C603637001308B
:10145000CCE76378082262F3C60363700130237817
:1014600043F002032370C1E763786FF3C603637030
:10147000BCE7A278012161F30202A270627802F057
:101480007802402A10D0632B13D02378C3F3400294
:10149000154365F34103237002B070BDA2780221A9
:1014A00061F30202A270E9E7217841F001012170A5
:1014B000E9E7151E18BF0125E7E7A378042262F3C8
:1014C0000203A3700125E0E7A378032262F302037D
:1014D000A370637803F07803402BD6D10125D4E7BD
:1014E000A378032262F30203A370637813F0780FEA
:1014F000CBD00125C9E7237843F001032370C4E76B
:101500002DE9F04F91B006460D4691460393002415
:1015100099F80000002800F0D582252808D009F1AC
:1015200001092946B0470028C0F2CD820134EFE717
:101530000023049305930693079308930993494660
:1015400006A8FFF753FE02909DF8193013F0010F23
:1015500000F09780039B1A1D03921F68002FC0F2B2
:1015600088809DF8193013F0040F00F09C80039BD5
:101570001A1D0392D3F800A0BAF1000FC0F28A80BE
:101580000023079308939DF81A3003F007039DF892
:101590001910C1F3C301012B00F08E80022B00F063
:1015A000D380042B00F02481032B00F03B819DF8B5
:1015B000188018F0030B40F03B819DF81B30253B51
:1015C000532B00F2E681DFE813F04001E401E4016F
:1015D000E401E401E401E401E401E401E401E401E3
:1015E000E401E401E401E401E401E401E401E401D3
:1015F000E401E401E401E401E401E401E401E401C3
:10160000E401E401E401E401E401E401E401E401B2
:10161000E401E401E401E401E401E401E401E401A2
:10162000E401E401E401E401E401E401E401E40192
:101630008101E401E401E401E401E401E401E401E5
:10164000E401E401E4015E016701E401E401E40175
:10165000E4016701E401E401E401E401BE01810168
:10166000A201E401E4014D01E4018101E401E4018E
:1016700081019DF8183043F004038DF818307F4243
:101680006FE79DF91830002B02DB4FF0FF3768E75A
:10169000079F66E79DF819306FF341038DF8193005
:1016A0004FF0FF3A6CE713F0020F02D0DDF820A0F4
:1016B00066E74FF0FF3A63E7CB1E042B04D8DFE860
:1016C00003F00B1D29353500039B1A1D03921B687F
:1016D000DA170493059206E0039B1A1D03921B6818
:1016E000DA1704930592012928D002297FF45FAF0D
:1016F000BDF91030DA170493059258E7039B0733BE
:1017000023F0070303F108020392D3E90023CDE994
:101710000423E8E7039B073323F0070303F10802E0
:101720000392D3E90023CDE90423DCE7039B1A1DD0
:1017300003921B68DA1704930592D4E79DF81030E2
:1017400004930023059332E7CB1E042B04D8DFE873
:1017500003F00B1F35414100039B1A1D03921B68C8
:101760000493002305931EE09DF81B30632B07D0E4
:10177000039B1A1D03921B6804930023059312E038
:10178000039B1A1D03921B680493002305930AE030
:10179000039B073323F0070303F108020392D3E905
:1017A0000023CDE9042301291CD002297FF4FFAED8
:1017B000BDF81030049300230593F8E6039B07332C
:1017C00023F0070303F108020392D3E90023CDE9D4
:1017D0000423E8E7039B1A1D03921B68049300236C
:1017E0000593E0E79DF81030049300230593DEE6AF
:1017F00008290BD0039B073323F0070303F10802EA
:101800000392D3E90023CDE90423D0E6039B0733F9
:1018100023F0070303F108020392D3E90023CDE983
:101820000423C4E6039B1A1D03921B680493BEE6BF
:10183000029F3B464A462946304607F085FD002870
:10184000C0F241810444B94662E629462520B047EA
:101850000028C0F238810134D8460DF13E0A4FF01D
:1018600000099BE0DDF81090BAF1000F07DB51464C
:10187000484607F06BFE09EB000AD8468EE0484662
:1018800007F05BFEF7E7049B8DF82830D8460DF192
:10189000290A0DF1280981E018F0080F05D118F088
:1018A000100804D04FF0200801E04FF02B08049AF4
:1018B000059B002B02DB0492059308E0524263EB88
:1018C0004303049205934FF02D0800E0D8460DF134
:1018D0003E0300930AAB06AADDE9040107F0CAFC47
:1018E0008146BAF1000FC0F288800DF13E03A3EBF0
:1018F00009039DF818206FF386128DF818209A4579
:101900007ED9AAEB030307930DF13E0A46E0049843
:1019100028B9D846DFF8B4A1AAF105093EE00DF1D7
:101920003E0300930AAB06AA002107F0A3FC814600
:101930009DF81A3043F010038DF81A3078238DF893
:101940001B30D846CDE7049A9DF81930C3F3C30382
:10195000072B06D8DFE803F0040B0D0F1115191B38
:101960001460D8460DF13E0A4FF0000916E01470DD
:10197000F7E71480F5E71460F3E7E31714605360AA
:10198000EFE7E31714605360EBE71460E9E71460D6
:10199000E7E7D8460DF13E0A4FF00009B9F1000F14
:1019A00000F08D80AAEB0903B8F1000F00D00133DD
:1019B0009DF81A2012F0100F25D0023307990B441E
:1019C00012F0400F01D0089A1344002F31DDFF1AA6
:1019D0009DF8183013F0040F2BD113F0400F17D0DF
:1019E000B8F1000F17D029464046B04700286ADBFF
:1019F0000134D8464FF0300B0FE00DF13E0ACDE731
:101A00000DF13E0ACAE712F0080FD7D00133D5E72F
:101A10004FF0200B01E04FF0300B3B465F1E002BD8
:101A200007DD29465846B04700284CDB01343B46C9
:101A3000F4E7B8F1000F05D029464046B04700282A
:101A400041DB01349DF81A30C3F30012C3F3C00325
:101A5000134305D029463020B047002833DB01343A
:101A60009DF81A3013F0100F06D029469DF81B0080
:101A7000B047002827DB0134079B03F1FF38002B18
:101A800007DD29463020B04700281CDB01344346DF
:101A9000F3E753464A462946304607F055FC0028EE
:101AA00011DB0444002F07DD29462020B047002821
:101AB00009DB0134013FF5E7DDF8089028E5DDF8A2
:101AC000089025E5204611B0BDE8F08F49AC000034
:101AD00008B54FF02002EFF3118382F31288BFF3B1
:101AE0006F8F00F0A5FF034807F0C1F900F0D2FAAC
:101AF000FCE700BF4CAC000070B5404B1D7D05F00D
:101B00001F0301229A4069093D4B03EB8103D04337
:101B1000BFF35B8F53E8001F01EA000443E800466F
:101B2000002EF7D1BFF35B8F0A4200D170BD354A5A
:101B300005EB4503980002EB83033349A9B15978BB
:101B4000105C07F079FD4FF02003EFF3118683F36B
:101B50001288BFF36F8F2D4804F0B0F958B12B48AD
:101B600004F0CCF92A4B1C6820E0002383F3118891
:101B7000BFF36F8FE7E7274C8E232246264927487D
:101B800007F003FC2149264807F0FFFB8E21204681
:101B900007F0F4FBE3E7194B1B7D03EB4303194903
:101BA00011F8230090470CB1246824B11CB1A2683D
:101BB000002AF0D1F7E7154804F090F970B186F3E8
:101BC0001188BFF36F8F0F4A05EB4505A90002EBA3
:101BD0008505002353506B60AB60A7E70D4CB9231C
:101BE000224610490D4807F0D0FB08490E4807F07F
:101BF000CCFBB921204607F0C1FBE0E778120020BA
:101C0000D4070020C407002039960000B807002040
:101C1000BC070020DCA900003CAA0000CCA4000006
:101C200054AA00000CAA000024AA000070B50446C3
:101C30006D4B1D7D6A09BFF35B8F6C4B53F82230EF
:101C4000BFF35B8F05F01F02134113F0010F1DD08E
:101C500005EB4503664A12F8233033B3B4F1FF3F76
:101C600039D105F027F84FF02003EFF3118683F305
:101C70001288BFF36F8F5F4804F020F9002840D02E
:101C80005C4804F03BF95C4B1C6855E00146284673
:101C900000F0D6F80028DBD005EB4503544A02EBF0
:101CA000830307C883E80700D2E705F01F0201237A
:101CB00093406D094D4A02EB8505DB43BFF35B8F13
:101CC00055E8002F1A4045E800210029F8D1BFF35C
:101CD0005B8F002077E005EB4503454A02EB830369
:101CE0009868410CC003454BC018454A4FF00003AB
:101CF00041F10001FEF704FA0121201A06F068FB09
:101D0000AFE7404C8E2322463F49404807F03DFB59
:101D100038493F4807F039FB8E21204607F02EFB5B
:101D2000AEE7314B1B7D03EB4303314911F8230030
:101D300090470CB1246824B11CB16268002AF0D12C
:101D4000F7E72C4804F0CAF800283DD086F3118844
:101D5000BFF36F8F05F01F03012199406B092D4AD6
:101D600002EB8303BFF35B8F53E8002F0A4343E882
:101D700000200028F8D1BFF35B8F274B4BB11C4BE1
:101D800005EB450203EB8201497813F8220007F0C6
:101D900047FCFFF7B1FE05F01F03012404FA03F32B
:101DA0006D09124A02EB8505DB43BFF35B8F55E8F3
:101DB000002F1A4045E800210029F8D1BFF35B8FBE
:101DC00005F062FD204670BD0E4CB9232246134932
:101DD0000E4807F0DAFA0749114807F0D6FAB92198
:101DE000204607F0CBFAB1E778120020D007002098
:101DF000C4070020B8070020BC0700203F420F00A6
:101E000040420F00DCA900003CAA0000CCA4000066
:101E100054AA0000D4070020219600000CAA00005C
:101E200024AA0000BFF35B8F044B53F82000BFF3DC
:101E30005B8F003818BF0120704700BFD807002013
:101E40002DE9F04182B00E4601A900F043F8441E8E
:101E500024B207E0B6F1FF3F32D04044B0422FD960
:101E6000013C24B2002C2ADB019B04EB440203EB6F
:101E7000820513F82200FFF7D5FF0028F0D168682B
:101E8000410CC003104FC019104A4FF0000341F13C
:101E90000001FEF735F98046AB68590CDB03D81911
:101EA0000A4A4FF0000341F10001FEF729F9084BFF
:101EB0001B68B3F1FF3FCDD08342CBD8D0E70025DC
:101EC000284602B0BDE8F0813F420F0040420F00BB
:101ED0000400002008B9024B0B600020704700BFCF
:101EE00078AC000008B5024806F01AFE08BD00BF35
:101EF00078AC0000D0B108B54268042A05D0D2B150
:101F0000006804F0F1FA002008BD03680022BFF366
:101F10005B8F53E8001F012903D143E8002000280C
:101F2000F7D1BFF35B8F04D11046EDE76FF4E040CB
:101F300070470248E8E70248E6E700BFE98FFFFF85
:101F4000EA8FFFFF20B308B54268042A02D092B995
:101F500011480FE003680122BFF35B8F53E8001FB5
:101F6000002903D143E800200028F7D1BFF35B8F9D
:101F70000CD1002008BD00684FF0FF324FF0FF3356
:101F800004F092F90028F5D00448F3E70348F1E79C
:101F90006FF4E040704700BFEA8FFFFFE98FFFFF5B
:101FA00010B5044688B16368042B0DD0082B0BD004
:101FB00053B113F0020F0DD02146094803F008FF7A
:101FC000002323600023636010BD064B5B68064856
:101FD0009847E8E714220021206807F0F0FAF1E7BB
:101FE000F4070020E000002080AC000010B504469B
:101FF00078B16368042B0BD0082B09D00BB9236888
:1020000063B1206807F0DAFF636843F0010363609F
:1020100010BD0F4B5B680F489847EAE74FF0FF325F
:102020004FF0FF3321460C4803F05CFE08B92368EB
:102030001BB9074B5B6809489847142200212068A8
:1020400007F0BDFA636843F002036360D9E700BF9D
:10205000E000002080AC0000F4070020A8AC0000E5
:1020600008B5402314220449044807F055FF0449E9
:10207000044806F0B5FD08BD14080020F407002050
:10208000E8AC0000D8AC0000014910220A6070479B
:1020900010ED00E072B6404080F31188BFF36F8FFF
:1020A000BFF34F8F30BF62B6BFF36F8F704700BF73
:1020B00072B6494081F3118820BF80F3118862B65F
:1020C000704700BF40B2002807DB00F01F02400944
:1020D00001239340014A42F82030704700E100E0BC
:1020E0004209054B53F8222000F01F00012303FA98
:1020F00000F01040704700BF00E100E0F8B5044672
:102100004D1C072D0BD860B200281BDB6D01EDB212
:1021100000F1604000F5614080F80053F8BD0E46C4
:102120000C4F57233A460C490C4807F02EF9072369
:10213000224631460A4807F028F95721384607F069
:102140001DF9E0E700F00F006D01EDB2054B1D54E5
:10215000E4E700BFFCAC000034AD0000CCA40000FC
:1021600050AD000014ED00E030BFFFF7FDBF00BF31
:1021700008B50B4B0B4A22F07F029A60BFF34F8FDA
:10218000BFF36F8FD3F8882022F47002C3F8882041
:1021900003F0D6FC05F02AFF00F074FA03F02EFDE0
:1021A00000ED00E0000000000A4A9368C3F8A800B0
:1021B00009490968C3F8AC1008494B6843F08053DB
:1021C0004B60002383F31188BFF36F8F9368D3F8BC
:1021D000AC0070477812002054B4000000ED00E01D
:1021E00013498A684FF030001044EFF3098C80E8FF
:1021F000F01F202080F31288BFF36F8F0D4F4FF038
:102200000066CA698A603E60D2F8A8000023C2F85E
:10221000A83080F3118804B5104600F0DDFABDE85F
:10222000044002F1300090E8F01F8CF309887047F9
:102230007812002004ED00E01EF0040F0CBFEFF355
:102240000880EFF30980816911F8021C0229FFD090
:1022500001B507F0B1F801BD10B4A2F120040E4998
:1022600042F8081C21F0010142F8081C42F8203C09
:10227000019B42F81C3C029B42F8183C039B42F82D
:10228000143C4FF0807342F8043C04650023C0F80E
:10229000A83010BC704700BFC38F0000124B9A6873
:1022A00002B310F1160F11D0D2F89830A3F1200C20
:1022B000844505D8834205D98B4205D800210BE01F
:1022C000002109E0002107E0012105E0D2F8983063
:1022D0008B4294BF0021012109B900207047D2F838
:1022E00098007047002070477812002008B50D460E
:1022F0001446084B986000F06FFA204685F3098871
:10230000002163B681F31188BFF36F8F0022002391
:1023100006F057FE7812002001B572B60B4A90699C
:1023200000281EBF0021916107F02CFE62B6EFF37A
:102330000580A0F110004FEAC0000549014409C919
:102340009847BDE801400349084700007812002083
:1023500044A2000059230000044B9968D8698842C0
:1023600003D003494FF080520A6070477812002072
:1023700004ED00E010B51446124B9A6A9A6A9B6A03
:1023800013F4007F0BD00F4B9A6B9B6A13F4004F32
:1023900005D021B10B4A936A23F400439362094BA1
:1023A0009A6A9B6A13F4807F01D1064B9B6A054AA7
:1023B000936A43F47F439362012107F00FF8207082
:1023C000002010BD00ED00E0074B9A6A9A6A9A6AF5
:1023D0009A6A9A6A9A6A9A6A6FEA02426FEA1242A3
:1023E0009A620020704700BF00ED00E0F8B5054696
:1023F0001646304B9A6A9A6A9B6A13F0020F0CD009
:102400002C4B586B9B6A13F0800F2FD039B1294A9F
:10241000936A23F08003936201E06FF01500254B6F
:102420009A6A9A6A9B6A13F0100F04D1214B9C6A36
:1024300014F0020404D01F4B5C6814F4006418D13B
:102440001C4B9B6A13F0200F04D01A4A536A23F4E2
:1024500000535362174A936A43F0FF0393620121CA
:10246000284606F0BBFF30702046F8BD6FF015001F
:10247000D5E72946FFF712FF0746B0B90D4B9C6A16
:1024800014F01004DCD00C4C40F2491322460B49E6
:102490000B4806F07AFF0B4806F077FF40F249112F
:1024A000204606F06BFF3C46CAE780F30988022409
:1024B000C6E700BF00ED00E090AD0000CCAD00002D
:1024C000CCA4000018AE000038B500230B702C4BD4
:1024D000DC6A14F002044FD1DB6A002B4DDB284B81
:1024E000DD6A15F0804535D0836933F8022C4DF64E
:1024F00002739A420FD0224B93F828306BB9204BCD
:1025000093F829307BB91E4B5B8D9BB28BB1FFF7E3
:102510005BFF044631E004682FE00A460121FFF723
:1025200065FF044629E00A460121FFF723FF044620
:1025300023E0144D40F2CD232A461349134806F0F8
:1025400024FF134806F021FF40F2CD21284606F073
:1025500015FF12E00B4C40F2D12322460A490B48EA
:1025600006F013FF0B4806F010FF40F2D121204681
:1025700006F004FF2C4600E00024204638BD00BFD2
:1025800000ED00E090AD000090A60000CCA400009B
:102590003CAE000060AE0000F0B58BB02B4B5D6828
:1025A000C5F30805002383F31188BFF36F8F02F092
:1025B0007F43B3F17F4F0DD102F00C03082B27D0DE
:1025C00012F0080F03D00C460026ACB904E0044614
:1025D0000126FAE7002634461D4F40F2FB333A4607
:1025E0001C491D4806F0D1FE1C4806F0CEFE40F204
:1025F000FB31384606F0C2FE0DF12702294620467F
:1026000006F0F1FE05469DF8273023B10BB0F0BD72
:1026100000263446E0E72022214601A806F0A0FF6C
:102620004EB1089BC3F308025AB96FEA53236FEA0D
:102630004323089305E0089B23F4FF7323F0010371
:10264000089301A9284606F0B3FEDFE700ED00E09D
:1026500090AD000090AE0000CCA40000A4AE00003D
:10266000024A536943F010035361704700ED00E0E4
:10267000EFF30880EFF3098101B57246FFF78CFF95
:1026800001BD00BF002206E002F00F01094B0B4420
:102690002021197601322F2A0ADC53B2002BF3DBFA
:1026A00003F1604303F56143202183F80013F1E750
:1026B000704700BFFCEC00E0002080F31488BFF3FB
:1026C0006F8F07F049FD00200D490860BFF34F8F61
:1026D0000C4880F3088800F02DF8202080F3118842
:1026E00009484FF40261401880F30988EFF3148021
:1026F0000221084380F31488BFF36F8FFFF738FD82
:1027000094ED00E0602D0020E02E0020084BD3F86F
:102710009000C0F30720002306E0054AC2F8983075
:102720000021C2F8A01001338342F6DB704700BFDE
:1027300000ED00E010B572B6002484F31388FFF7B3
:10274000E5FF234608E003F120010E4A4FF0FF3079
:1027500042F821000133DBB2072BF4D9002308E053
:1027600003F16001074A4FF0FF3042F821000133C6
:10277000DBB2072BF4D962B6BFF34F8FBFF36F8F75
:1027800010BD00BF00E100E008B50A4B9B68834222
:1027900002D005F089FB08BDEFF30583002BF8D0CC
:1027A000054B5A6842F080525A605A6A22F400423D
:1027B0005A62EEE77812002000ED00E008B5034B06
:1027C000034A0121034800F067F808BD0000042017
:1027D00000000020E4AE000008B5D0F89830203B9F
:1027E0000448036020234360034B8360012100F011
:1027F00075F808BD140D002000000B15084AC2F83A
:1028000098000B6823F01F03034343F01003C2F842
:102810009C308B6843F00103C2F8A030704700BFC2
:1028200000ED00E010B5034C0123227806F039FEDC
:10283000207010BDA014002008B50023094A1278AA
:1028400006F02FFE10F1160F0AD0034606E0064AE6
:10285000C2F898300021C2F8A0100133072BF6DD32
:1028600008BD00BFA014002000ED00E0044B0522CD
:10287000C3F89420BFF34F8FBFF36F8F704700BF33
:1028800000ED00E0BFF35F8F024B0022C3F89420FD
:10289000704700BF00ED00E038B50C46FFF7C2FFFF
:1028A00010F1160F00D038BD084D40F211132A4622
:1028B0000749084806F069FD2146074806F065FD0E
:1028C00040F21111284606F059FDECE7F0AE000089
:1028D00090A60000CCA4000028AF000038B50C463C
:1028E000FFF7AAFF10F1160F00D038BD084D4FF4C6
:1028F00098732A460749084806F047FD21460748CD
:1029000006F043FD4FF49871284606F037FDECE7DA
:10291000F0AE000090A60000CCA4000054AF000070
:1029200038B5244B1D68082D03D8FFF7ABFF0024F2
:102930001EE0214C4FF4A47322462049204806F0A3
:1029400024FD082229461F4806F01FFD4FF4A471FC
:10295000204606F013FD4FF0FF3017E0154B596885
:1029600004EB4402930019442046FFF747FF01346B
:10297000A542F3D8144B1D70FFF778FF134BD3F823
:102980009030C3F30723082B01D1002038BD0A4C37
:102990004FF4D47322460E49094806F0F6FC0D4860
:1029A00006F0F3FC4FF4D471204606F0E7FC00205B
:1029B000ECE700BF3CB00000F0AE000090A60000C5
:1029C000CCA4000084AF0000A014002000ED00E0C3
:1029D000B8AF000008B00000014B1860704700BF9E
:1029E0002800002010B54FF02003EFF3118483F38B
:1029F0001288BFF36F8F01230C4AC2F840354FF0A5
:102A00008042C2F8783506F0FBFD20B14FF08043DC
:102A10000122C3F838264FF080430122C3F88025F5
:102A200084F31188BFF36F8F002010BD00E00140D8
:102A3000C0B24FF08042C2F81C05BFF34F8F05496A
:102A4000CA6802F4E062044B1343CB60BFF34F8FBC
:102A500000BFFDE700ED00E00400FA0530B108B565
:102A60008001034B43F00103984708BD704700BF46
:102A700030A4000000487047780D0020014BC01AB8
:102A800040117047300D002030B583B005460C462C
:102A9000FFF7F4FF0146402300932346054A06480A
:102AA00006F03BFE011E01DB03B030BD2846A04707
:102AB000FAE700BF63970000CCA1000008B50A4BFD
:102AC000BFF35B8F53E8002F22F0020143E80010B0
:102AD0000028F7D1BFF35B8F12F0010F00D008BDC3
:102AE00006F051FEFBE700BF880D002070B50546DB
:102AF000CCB2012C07D82146284606F0A3FD8068F9
:102B000000F0070070BD064E79233246054906489D
:102B100006F03BFC7921304606F030FCEBE700BFC5
:102B20005CB000009CB00000CCA400002DE9F04196
:102B300007461646CCB2214606F084FD0546012C18
:102B40000FD8314605F1080006F08BFD002806DBA2
:102B50002146384606F07DFD436898470020BDE8D1
:102B6000F081DFF81C8040F24D13424605490648CB
:102B700006F00BFC40F24D11404606F0FFFBE0E78B
:102B80005CB000009CB00000CCA4000038B5054645
:102B90000C46FFF773FF014640220348FFF7C6FFCC
:102BA00001462846A04738BDCCA1000010B5012839
:102BB0001DD0032820D068B1164C40F26223224673
:102BC0001549164806F0E1FB40F26221204606F066
:102BD000D5FB10E00021124806F034FD836813F0A5
:102BE000070F08D100210E4806F085FD03E0012102
:102BF0000B4806F080FD10BD064C40F25E232246D5
:102C00000549064806F0C1FB40F25E21204606F069
:102C1000B5FBF0E75CB0000090A60000CCA400007B
:102C2000CCA1000000B585B0CDF800D0CDF804D01F
:102C300000230293012303936B46074A06F089FDA4
:102C4000002805DB4FF480420023684603F09AFE1B
:102C500005B05DF804FB00BFA597000070B50646FF
:102C6000002201211046FFF749FA114801F066FDE4
:102C7000104B984219D101F08BFD0024012C12D881
:102C80002146304606F0DEFC05462146304606F079
:102C9000E4FC094906F079F9002805DB0123AB6063
:102CA0001C44E4B2EAE7002070BD6FF00400FBE7CB
:102CB000AD2B00000000AD0BFCB0000070B5054668
:102CC000012807D14FF08043D3F81C3403F00303ED
:102CD000012B5AD007F041F928B92F4B1B78002B54
:102CE00043D0002300E001231C46002B3FD04FF0CF
:102CF0002003EFF3118683F31288BFF36F8F24B99B
:102D00004FF080430222C3F808234FF08042D2F8EC
:102D1000183403F00303D2F8182412F4803F2DD1A5
:102D200000221AB1012B2BD0012D29D00CB3304633
:102D3000FFF7BEF94FF08043D3F81835002BE4D1EC
:102D40004FF08043D3F80431002BDED04FF08043A6
:102D50000022C3F80421D3F804210122C3F8182566
:102D60000E49C1F880219A60CFE70123BCE7002615
:102D7000C5E72120002105F045F8DBE70122D0E777
:102D800024B186F31188BFF36F8F70BD4FF080437D
:102D90000222C3F80423F8E7A114002000E100E0B8
:102DA00010B54FF02003EFF3118483F31288BFF3C3
:102DB0006F8F134A136843F00203136013F0010F7F
:102DC00008D1002384F31188BFF36F8F9BB906F0FD
:102DD000D0FC10BD4FF08043D3F80C24D3F80C3452
:102DE00012F0010F01D10023ECE7FFF743FE06F0DC
:102DF0006FFC0123E6E70021024806F07CFCE8E7CF
:102E0000880D0020CCA1000038B504461F4B0121DD
:102E1000BFF35B8F53E8002F43E800100028F9D17F
:102E2000BFF35B8F42B134B1631EDBB2012B1FD8FD
:102E30002046FFF743FF38BD154806F00EFC154944
:102E400000234B608B60CB6001238B60FDF780FF1C
:102E50000028E8DA104D4FF408732A460F4910484D
:102E600006F093FA4FF40871284606F087FADAE77D
:102E7000094C40F2322322460A49094806F085FAF5
:102E800040F23221204606F079FAD4E78C0D00207A
:102E9000CCA10000200D00205CB00000C0B00000FC
:102EA000CCA4000090A6000010B504460A2807D064
:102EB000074B1868E1B283685B689847204610BDED
:102EC000034B186883685B680D219847F0E700BFE3
:102ED000900D002010B5044C2046FFF77DFD2046E4
:102EE000FDF78CFC10BD00BFA92E000008B50648F8
:102EF000064B186006F0E4FF18B1FFF7EBFF002067
:102F000008BD6FF01200FBE72CA20000900D00201E
:102F100028B1012801D103487047002070470248BA
:102F2000704700BFE4A10000FCA100002DE9F041C2
:102F3000164605692F1D0C4631B16368A3B16B6855
:102F4000002B3BD000212AE0DFF894802423424666
:102F50002449254806F019FA244806F016FA2421D7
:102F6000404606F00BFAE8E7DFF874802523424676
:102F70001F491D4806F009FA1E4806F006FA2521E9
:102F8000404606F0FBF9DAE723686B607A68944202
:102F90000FD17B600DE079600BE019461B685BB1D7
:102FA0009C42FAD10029EFD023680B607B689C42D9
:102FB000F1D000232360012303B956B166B16B68D9
:102FC00023606C607B680BB1002006E07C60002011
:102FD00003E06FF0150000E00020BDE8F08100BFC5
:102FE00008B1000038B10000CCA4000044B10000DA
:102FF00054B1000068B100002DE9F04100F01F0459
:103000004009FFF785FF80B3074603690126A64004
:103010005C681CB125467CB125680DE025460BE0B7
:103020006368A2683240214638469847DDB12B4696
:1030300005B12B682C461D46BCB1A3681E42F5D0D5
:103040006368002BECD1DFF828804523424609490C
:10305000094806F09AF9094806F097F945214046D3
:1030600006F08CF9DCE72B46E4E7BDE8F08100BF11
:1030700008B1000080B10000CCA4000068B10000DD
:10308000F0B585B00E46194643681B7B06F01F0459
:1030900044EA4314B2F5001F22D007461546002328
:1030A00002930393104606F0FBFB8DF808007B6843
:1030B0009968F14011F0010102D1B5F1A07F14D05F
:1030C000002302AA1946204601F0DCFF324B984249
:1030D0005FD10121204602F039FA002005B0F0BD91
:1030E000204602F03FFB0020F8E763091FD0012BC8
:1030F00001D14FF6FF7104F01F03D94011F0010F09
:1031000018D004F01F05630922D0012B23D0234ED1
:1031100040F22E2332462249224806F036F940F288
:103120002E21304606F02AF94FF0A04314E04FF06C
:10313000FF31E0E7194D40F229232A461A49194880
:1031400006F023F940F22921284606F017F9D8E7BE
:103150004FF0A04300E0154B05F5E07553F825301E
:1031600013F0010FACD10DF10701204602F07EF9FA
:103170000F4B984203D00DF107030393A0E70DF125
:10318000070002F0DBF9044B9842F4D06FF00B001B
:10319000A4E76FF00400A1E70000AD0B8CB10000C4
:1031A00090A60000CCA40000C0B1000000030050B5
:1031B0000400AD0B30B583B004460DF1070102F0F9
:1031C00055F90546204602F035FB0B4B98420FD1CE
:1031D0009D4205D0084B984207D1002003B030BD76
:1031E0009DF8070002F0A2F9F4E76FF00400F5E79C
:1031F0006FF00400F2E700BF0000AD0B2DE9F043D3
:1032000087B0D0F8048098F80C3001F01F0545EA2B
:103210004315002A44D00C46174600260396049610
:103220000DF11701204602F021F98146334603AA29
:103230003146284601F026FF304B98425BD1994534
:1032400036D017F4003F43D00DF10301384606F0A5
:10325000AEFA064640BB9DF803308DF8043017F4F3
:10326000803F0CBF012300238DF80530384606F05F
:10327000E4FA8DF8060017F4002F1ED0D8F80430B9
:10328000012101FA04F4C3F80845002201A92846E7
:1032900001F0ECFF194B984206D06FF0150603E0E1
:1032A0002846FFF787FF0646304607B0BDE8F083A3
:1032B0009DF8170002F03AF9C3E717F4802FE4D025
:1032C000D8F80420012303FA04F4C2F80C45DCE723
:1032D000384606F0B2FA8DF8080000231A4602A913
:1032E000284601F0CFFE054B984201D10026DBE7CE
:1032F0006FF01506D8E76FF01506D5E70000AD0BA7
:1033000008B502F009F908B1002008BD02F0DAF8AA
:10331000084B98420AD10021074802F0A1F8002288
:1033200005210620FEF7EAFE0020EEE76FF004001C
:10333000EBE700BF0000AD0BF92F000043681A68EF
:10334000B1F5164F6FD03AD8B1F5165F6ED00AD9E5
:10335000B1F5E14F75D024D947F6122399422BD10C
:103360004FF4000313E0B1F5966F61D007D9B1F5C2
:10337000166F63D0B1F5965F10D13C4B07E0B1F505
:10338000967F58D0B1F5167F05D14FF41C33C2F8A3
:103390002435002070476FF0150070476FF015005E
:1033A0007047B1F5615F4ED0B1F5964F01D1304B0A
:1033B000EDE76FF0150070476FF015007047B1F53D
:1033C000613F42D009D9B1F5612F46D01FD9294BB1
:1033D000994248D14FF08053D9E7B1F5963F37D0A5
:1033E00005D9B1F5E13F0FD14FF0EB73CFE74DF6C3
:1033F000C02399422ED0B1F5614F02D14FF46B0337
:10340000C5E76FF0150070476FF0150070471A4B55
:10341000994225D0B1F5E12F02D14FF0E863B6E72C
:103420006FF0150070474FF41D03B0E7134BAEE784
:103430004FF49E23ABE74FF4A033A8E74FF41D23CE
:10344000A5E70F4BA3E70F4BA1E74FF06C739EE787
:103450000D4B9CE74FF4650399E74FF0706396E7D7
:103460004FF0806393E76FF01500704700B01300D2
:1034700000A04E0040420F0090D0030000502700F3
:1034800000C0750000F03A0000903A012DE9F041CB
:1034900005460F46D0F8108006F05FFD20B9164BA8
:1034A0001B7843B1002300E0012353B9284606F0FE
:1034B00000FB064613E00123F7E784F31188BFF30E
:1034C0006F8F4FF02003EFF3118483F31288BFF363
:1034D0006F8F2646284606F09EFA0028EDD041461A
:1034E00001F8107F0122284606F0AFFA86F3118812
:1034F000BFF36F8FBDE8F081A114002038B50446FA
:103500000D4601F1120002F021FA0C4B984211D144
:10351000AB7C04F590710C34094AA23342F83310A5
:1035200002EBC3035C60A97C01238B40C2F8043525
:10353000002038BD6FF00400FBE700BF0000AD0BBA
:1035400000F0014021F07F4100F5A870014B43F8E5
:10355000201070470010014000F5A870014B53F88F
:1035600020007047001001404FF480338340024A2E
:10357000C2F84433704700BF001001404FF480335D
:103580008340024AC2F84833704700BF0010014030
:10359000014BD3F8040570470010014010B501231A
:1035A00083406FEA030C104ABFF35B8F52E8001FA1
:1035B00001EA0C0E42E800E4002CF7D1BFF35B8F68
:1035C0004FF4803202FA00F002F1804202F580529C
:1035D000C2F80803BFF35F8FBFF36F8F0B4214BFB6
:1035E0000120002010BD00BFB00D002070B50446C2
:1035F00006F019FB05464FF48033A340174AD2F872
:103600000423134205D10026284606F015FB304658
:1036100070BD0123A340DB43114ABFF35B8F52E827
:10362000001F01EA030042E80006002EF7D1BFF3B5
:103630005B8F59B904F150039B009BB203F18043A7
:1036400003F588331B6813B1012300E001231E46F4
:10365000002BD9D0204606F0D7FAD5E7001001405C
:10366000AC0D002001B9704701238340114ABFF31C
:103670005B8F52E8001F194342E8001CBCF1000FA9
:10368000F7D1BFF35B8F4FF4803383400A4AC2F80F
:103690000433BFF35B8F094B1B68BFF35B8F23FAC7
:1036A00000F010F0010FDED0054B4FF40032C3F8EC
:1036B0000021D8E7B00D002000100140AC0D002023
:1036C00000E100E02DE9F843074614461E46104687
:1036D000194606F0A5FA0546154B1A68A01A1C6093
:1036E0005E60A5F50013B3F5400F09D3002404F084
:1036F000D5FE3846FFF730FFA8420ED0BDE8F8836C
:103700000C4B1B681A0A1B0615EB030842F1000953
:10371000094BC3E900890124E9E71CB13846FFF7EA
:1037200023FFEBE74FF400013846FFF70BFFF5E707
:1037300048060020B40D00203006002038B50D4B9F
:103740001C68250A2406BFF35F8FFFF721FF03469D
:10375000001945F10001B3F5801F0AD2064BD3E9E9
:103760000023904271EB030303D210F1807041F10A
:10377000000138BDB40D002030060020F8B5064623
:1037800014461D461046194606F04AFA0746FFF74A
:10379000D5FFA04271EB05031DD2231A65EB010191
:1037A0001B4A934271F100032FD21A4B03EB06130D
:1037B000D3E90223AB4208BFA2421AD039463046B1
:1037C00006F03FFA394606F01BFA001945F10003EE
:1037D00004461D460DE00123B3400F4ABFF35B8F43
:1037E00052E8001F194342E800100028F8D1BFF347
:1037F0005B8F084B320103EB0616C6E902450699BA
:103800009950079B73600020F8BD6FF01500FBE72F
:103810000100000138060020AC0D002030B583B057
:1038200000231D4AC2F80835002B24DD1A4C02255E
:10383000C4F80453194B4FF40032C3F8802100221E
:1038400001211120FEF75AFC1120FEF73BFC012359
:10385000A3602360124A136000240194114B00936B
:10386000114A0023204606F027FA2846FFF7CCFA33
:10387000204603B030BD0D4A02EB03124FF0FF307B
:103880004FF0FF31C2E902014FF480329A40024901
:10389000C1F804230133C7E70010014000E100E054
:1038A000B00D0020C5360000FFFF7F003806002065
:1038B0002DE9F04782B00446FFF798FE10B902B038
:1038C000BDE8F087FFF73AFF82460E4606F0ABF9F7
:1038D0000546134B03EB0413D3E90289C24576EB8B
:1038E00009030BD20026284606F0A6F9002EE6D0E2
:1038F000009742464B462046B047E0E7084A23017E
:1039000002EB0411D6584F680020D0504FF0FF3220
:103910004FF0FF33C1E902232046FFF72FFEE2E715
:103920003806002010B50E4BD3F8043313F0020F05
:103930000DD00B4BD3F804314BB1094B0022C3F827
:103940000421D3F80431074A1368013313600024BB
:10395000002C00DD10BD2046FFF7AAFF0134F7E779
:1039600000100140B40D002010B582B0B0F1FF3F4F
:1039700006D0012806DDB0F5000F05DA441E04E08C
:103980000F48F8E7002400E00D4CFFF7D7FE0D4B81
:1039900019685B68401AB0F5000F00D3002420447A
:1039A000421CB2F5000F00D3054A00208A1801908E
:1039B0000549009143F1000306F07EF902B010BD05
:1039C000FFFF7F0048060020C536000008B5FFF75E
:1039D000B5FE024B1B68C01A08BD00BF4806002098
:1039E0002DE9F8430C46914610F4805F02D04FF069
:1039F0000109002400F03F05C0F38118C0F303273C
:103A0000C0F3401310F0200F1DD0FBB14FF6FF7331
:103A100005F01F02D34013F0010F19D005F01F0667
:103A20006D0923D02DBB194D40F22E232A4618498B
:103A3000184805F0AAFC40F22E21284605F09EFC0D
:103A40004FF0A04316E04FF0FF33E1E70023DFE73C
:103A50000E4E40F2292332460F490E4805F095FCE0
:103A600040F22921304605F089FCD7E74FF0A0430A
:103A700000E00A4B44EA490444EA880444EA072483
:103A800006F5E07643F82640BDE8F8838CB10000E7
:103A900090A60000CCA40000C0B1000000030050BC
:103AA0002DE9F04705460E46174600244EE003F088
:103AB0003F03C7F80C3555F8243003F03F09C3F332
:103AC000401113F0200F1FD009B14FF6FF7209F01B
:103AD0001F03DA4012F0010F19D009F01F0A5FEA44
:103AE000591323D02BBBDFF8449340F22E234A46D0
:103AF000CF49D04805F049FC40F22E21484605F058
:103B00003DFC4FF0A04215E04FF0FF32DFE7DFF859
:103B10001CA340F229235246C749C64805F035FC8C
:103B200040F22921504605F029FCD6E74FF0A0428B
:103B300000E0C24A012101FA0AF3C2F808350A4638
:103B400055F80800FFF74CFF0134E4B2B44280F0AE
:103B50001E844FEA840855F824301A0C222A00F2F9
:103B6000188401A151F822F0AF3A0000F53B0000A3
:103B70000B3C0000AB3C0000C13C0000613D00007C
:103B8000013E000093430000934300009343000074
:103B900093430000173E0000413E000093430000A5
:103BA00093430000934300009343000093430000BD
:103BB00093430000934300009343000093430000AD
:103BC000573E00007D3F0000A3400000DF410000A1
:103BD000934300009343000093430000054300001B
:103BE0001B43000031430000474300005F430000D7
:103BF0007743000003F03F03C7F814350022114655
:103C000055F82400FFF7ECFE9EE703F03F03C7F8EA
:103C1000083555F8243003F03F09C3F3401213F080
:103C2000200F1FD00AB34FF6FF7309F01F02D340D5
:103C300013F0010F1BD009F01F0A5FEA591325D0BA
:103C40003BBBDFF8E89140F22E234A467849794899
:103C500005F09BFB40F22E21484605F08FFB4FF00C
:103C6000A04217E04FF0FF33DFE70023DDE7DFF886
:103C7000BCA140F2292352466F496E4805F085FBEE
:103C800040F22921504605F079FBD4E74FF0A042DD
:103C900000E06A4A012101FA0AF3C2F808350A462F
:103CA00055F80800FFF79CFE4EE703F03F03C7F806
:103CB00010350022114655F82400FFF791FE43E726
:103CC00003F03F03C7F8083555F8243003F03F09E7
:103CD000C3F3401213F0200F1FD00AB34FF6FF7347
:103CE00009F01F02D34013F0010F1BD009F01F0A87
:103CF0005FEA591325D03BBBDFF8309140F22E2309
:103D00004A464B494B4805F040FB40F22E214846BD
:103D100005F034FB4FF0A04217E04FF0FF33DFE730
:103D20000023DDE7DFF804A140F22923524642498F
:103D3000404805F02AFB40F22921504605F01EFBC1
:103D4000D4E74FF0A04200E03C4A012101FA0AF317
:103D5000C2F80C35002255F80800FFF741FEF3E6E3
:103D600003F03F03C7F80C3555F8243003F03F0942
:103D7000C3F3401213F0200F1FD00AB34FF6FF73A6
:103D800009F01F02D34013F0010F1BD009F01F0AE6
:103D90005FEA591325D03BBBDFF8909040F22E2309
:103DA0004A462349234805F0F0FA40F22E214846BE
:103DB00005F0E4FA4FF0A04217E04FF0FF33DFE7E1
:103DC0000023DDE7DFF864A040F2292352461A49B8
:103DD000184805F0DAFA40F22921504605F0CEFAEB
:103DE000D4E74FF0A04200E0144A012101FA0AF39F
:103DF000C2F80C350A4655F80800FFF7F1FDA3E6B6
:103E000003F03F03C7F810350022114655F824008F
:103E1000FFF7E6FD98E603F03F03C7F808350022F8
:103E2000114655F82400FFF7DBFD8DE68CB100004C
:103E300090A60000CCA40000C0B100000003005018
:103E400003F03F03C7F80C350022114655F8240053
:103E5000FFF7C6FD78E603F03F03C7F8603555F875
:103E6000243003F03F09C3F3403213F4005F44D120
:103E70005FEA59131FD00BB14FF6FF7209F01F0311
:103E8000DA4012F0010F19D009F01F0A5FEA591346
:103E900023D02BBBDFF8009340F22E234A46BF49C4
:103EA000BF4805F072FA40F22E21484605F066FA46
:103EB0004FF0A04215E04FF0FF32DFE7DFF8D8A265
:103EC00040F229235246B749B54805F05EFA40F260
:103ED0002921504605F052FAD6E74FF0A04200E003
:103EE000B14A012303FA0AF3C2F80C350122114644
:103EF00055F80800FFF774FD26E65FEA59131FD056
:103F00000BB34FF6FF7309F01F02D34013F0010FFC
:103F10001BD009F01F0A5FEA591325D03BBBDFF81D
:103F2000789240F22E234A469C499D4805F02DFA8E
:103F300040F22E21484605F021FA4FF0A04217E04A
:103F40004FF0FF33DFE70023DDE7DFF84CA240F25C
:103F5000292352469349924805F017FA40F2292145
:103F6000504605F00BFAD4E74FF0A04200E08E4A2D
:103F7000012303FA0AF3C2F80835B7E703F03F0359
:103F8000C7F8643555F8243003F03F09C3F34032D5
:103F900013F4005F44D15FEA59131FD00BB14FF601
:103FA000FF7209F01F03DA4012F0010F19D009F077
:103FB0001F0A5FEA591323D02BBBDFF8DC9140F2D4
:103FC0002E234A467549764805F0DFF940F22E2146
:103FD000484605F0D3F94FF0A04215E04FF0FF320C
:103FE000DFE7DFF8B4A140F2292352466D496C485F
:103FF00005F0CBF940F22921504605F0BFF9D6E78C
:104000004FF0A04200E0684A012303FA0AF3C2F825
:104010000C350122114655F80800FFF7E1FC93E545
:104020005FEA59131FD00BB34FF6FF7309F01F025D
:10403000D34013F0010F1BD009F01F0A5FEA591398
:1040400025D03BBBDFF8509140F22E234A4653491E
:10405000534805F09AF940F22E21484605F08EF9B2
:104060004FF0A04217E04FF0FF33DFE70023DDE71A
:10407000DFF824A140F2292352464A49484805F076
:1040800084F940F22921504605F078F9D4E74FF041
:10409000A04200E0444A012303FA0AF3C2F80835BB
:1040A000B7E703F03F03C7F8683555F8243003F04D
:1040B0003F09C3F3403213F4005F44D15FEA591360
:1040C0001FD00BB14FF6FF7209F01F03DA4012F058
:1040D000010F19D009F01F0A5FEA591323D02BBB37
:1040E000DFF8B49040F22E234A462C492C4805F0C4
:1040F0004CF940F22E21484605F040F94FF0A0421D
:1041000015E04FF0FF32DFE7DFF88CA040F2292303
:1041100052462449224805F038F940F229215046F8
:1041200005F02CF9D6E74FF0A04200E01E4A01232B
:1041300003FA0AF3C2F80C350122114655F80800BB
:10414000FFF74EFC00E55FEA59131FD00BB34FF6A3
:10415000FF7309F01F02D34013F0010F26D009F0BE
:104160001F0A5FEA591330D093BBDFF82C9040F25E
:104170002E234A4609490A4805F007F940F22E2144
:10418000484605F0FBF84FF0A04222E04FF0FF3325
:10419000DFE70023DDE700BF8CB1000090A6000040
:1041A000CCA40000C0B1000000030050DFF8ECA177
:1041B00040F2292352467A497A4805F0E6F840F25F
:1041C0002921504605F0DAF8C9E74FF0A04200E097
:1041D000754A012303FA0AF3C2F80835ACE703F085
:1041E0003F03C7F86C3555F8243003F03F09C3F39B
:1041F000403213F4005F44D15FEA59131FD00BB172
:104200004FF6FF7209F01F03DA4012F0010F19D0C8
:1042100009F01F0A5FEA591323D02BBBDFF87C910A
:1042200040F22E234A4661495E4805F0AEF840F25E
:104230002E21484605F0A2F84FF0A04215E04FF0BD
:10424000FF32DFE7DFF854A140F2292352465449F8
:10425000544805F09AF840F22921504605F08EF8AE
:10426000D6E74FF0A04200E04F4A012303FA0AF3D9
:10427000C2F80C350122114655F80800FFF7B0FBD3
:1042800062E45FEA59131FD00BB34FF6FF7309F0D6
:104290001F02D34013F0010F1BD009F01F0A5FEA81
:1042A000591325D03BBBDFF8F49040F22E234A4649
:1042B0003E493C4805F069F840F22E21484605F099
:1042C0005DF84FF0A04217E04FF0FF33DFE7002327
:1042D000DDE7DFF8C8A040F22923524630493148D3
:1042E00005F053F840F22921504605F047F8D4E78D
:1042F0004FF0A04200E02C4A012303FA0AF3C2F86F
:104300000835B7E703F03F03C7F824350122002141
:1043100055F82400FFF764FB16E403F03F03C7F8E9
:1043200028350122002155F82400FFF759FB0BE442
:1043300003F03F03C7F830350122002155F824006F
:10434000FFF74EFB00E403F03F03C7F834350122CA
:10435000002155F82400FFF743FBFFF7F5BB03F0FE
:104360003F03C7F838350122002155F82400FFF734
:1043700037FBFFF7E9BB03F03F03C7F83C350122E9
:10438000002155F82400FFF72BFBFFF7DDBB0020D1
:1043900001E06FF08500BDE8F08700BF8CB1000040
:1043A000C0B10000CCA400000003005090A60000A3
:1043B000024BD3F80034002BFAD0704700E00140E4
:1043C00008B5034BC3F80405FFF7F2FF08BD00BFB3
:1043D00000E00140014B024A1A607047540000207F
:1043E0000090D00338B505F0ACFC40B14FF08043ED
:1043F0000022C3F80C21C3F81021C3F8382505F0BA
:10440000AAFC002846D04FF08052D2F80414594B31
:10441000C3F82015D2F80814C3F82415D2F80C14E8
:10442000C3F82815D2F81014C3F82C15D2F81414B8
:10443000C3F83015D2F81814C3F83415D2F81C1488
:10444000C3F84015D2F82014C3F84415D2F8241448
:10445000C3F84815D2F82814C3F84C15D2F82C1418
:10446000C3F85015D2F83014C3F85415D2F83414E8
:10447000C3F86015D2F83814C3F86415D2F83C14A8
:10448000C3F86815D2F84014C3F86C15D2F8442468
:10449000C3F8702505F069FC18B1374B374AC3F8EB
:1044A0008C2605F075FC18B1354BFB22C3F8182596
:1044B00005F081FC70B14FF08041D1F8E43E23F06B
:1044C0000F034FF08052D2F8582202F00F0213432C
:1044D000C1F8E43E05F082FC20B12A4B4FF4007293
:1044E000C3F8402605F08DFC60B14FF08043D3F84F
:1044F000003413F0010F05D04FF080436FF001023C
:10450000C3F8002405F087FC38B14FF01023D3F82E
:1045100008224FF08043C3F858254FF01023D3F8FA
:104520000032002B08DB4FF01023D3F80432002BAD
:1045300002DBFFF74FFF38BD0120FFF741FF4FF0CF
:1045400010241225C4F80052FFF732FFC4F80452B9
:10455000FFF72EFF0020FFF733FFBFF34F8F0A490D
:10456000CA6802F4E062094B1343CB60BFF34F8F7C
:1045700000BFFDE700C0004000500040488103003C
:1045800000F000400090024000ED00E00400FA0559
:1045900010B50468B4FA84F3C3F11F035FFA83FC17
:1045A000002B16DB012202FA03F324EA0303BFF314
:1045B0005B8F50E8002FA24204D140E8003EBEF1DC
:1045C000000FF6D1BFF35B8FE3D181F800C0024842
:1045D00010BD0248FCE700BF0000AD0B0200AD0BB0
:1045E0000368CB4013F0010F15D100B50268012319
:1045F0008B401343BFF35B8F50E800CF944504D149
:1046000040E8003EBEF1000FF6D1BFF35B8FEDD165
:1046100002485DF804FB0248704700BF0000AD0B84
:104620000400AD0BF0B583B0054668B1012820D079
:104630003D4CD82322463D493D4804F0A6FED821F2
:10464000204604F09BFE68E04FF080430222C3F84E
:1046500008230022C3F80421D3F804210122DA60E0
:1046600001238DF807309D420FD0002642F21074CE
:1046700029E04FF080430122C3F808230021C3F84A
:104680000011D3F800115A60EAE70DF10706EDE7D3
:1046900036B14FF08043D3F8183403F0030333608E
:1046A0004FF08043D3F8183413F4803F2FD1002308
:1046B0008BB31EB19DF80730012B2CD1012005F0E2
:1046C000BDFB013C27D0002DE2D0012D0ED0194FAB
:1046D0004FF44F733A461549154804F056FE4FF40F
:1046E0004F71384604F04AFE0023E1E736B14FF03F
:1046F0008043D3F80C3403F0010333704FF0804350
:10470000D3F80C3413F4803F03D10023D0E7012306
:10471000CEE70123CCE7012D01D003B0F0BD064B5D
:1047200000225A71F9E700BFBCB2000090A6000059
:10473000CCA40000FCB20000B80D002038B504463F
:1047400050B10D4B1B79ABB90B4B1C6001221A7198
:1047500000225A71094838BD094D40F215132A4606
:104760000849094804F011FE40F21511284604F0EA
:1047700005FEE6E70548EEE7B80D00200000AD0BAA
:10478000BCB2000030B30000CCA400000C00AD0BA4
:1047900010B50F4B1B7953B10020FDF7A1FCA0B160
:1047A00005F050FB4FF08043C3F8180510BD094CCD
:1047B0004FF4977322460849084804F0E6FD4FF489
:1047C0009771204604F0DAFDE6E7FDF77BFCE7E7AA
:1047D000B80D0020BCB2000040B30000CCA4000023
:1047E00030B583B00446344B1B7983B1ECB1012C56
:1047F00055D0324C4FF4D37322463149314804F03E
:10480000C4FD4FF4D371204604F0B8FD52E02B4DA7
:104810004FF4B4732A462C492A4804F0B6FD4FF4ED
:10482000B471284604F0AAFDE0E74FF08042D2F8C8
:10483000183403F003030193D2F8183413F4803FC3
:1048400017D1D2F8143413F0010F16D105F0FAFA8B
:1048500001904FF08043019AC3F818250022C3F855
:104860000421D3F804210222C3F8042301229A6010
:1048700020E001A805F0E8FAEBE74FF08043D3F819
:104880001C3403F00303019301A805F0DDFA0028AE
:10489000DFD04FF080430222C3F804230AE04FF038
:1048A00080430022C3F80021D3F800210122C3F87D
:1048B00004231A6003B030BDB80D0020BCB2000064
:1048C00090A60000CCA4000040B3000038B5044618
:1048D0000A4B1B791BB12046FFF7A4FE38BD084DDB
:1048E00040F2AD132A460749074804F04EFD40F256
:1048F000AD11284604F042FDEDE700BFB80D0020E1
:10490000BCB2000040B30000CCA4000008B54FF0DA
:104910008043D3F800318BB14FF080430022C3F8BD
:104920000021D3F800210122C3F80823154B5B793D
:1049300023B9144B5A711B68002098474FF08043ED
:10494000D3F804319BB14FF080430022C3F8042117
:10495000D3F80421D3F81824D3F8183412F0030F35
:1049600006D14FF080430122C3F818259A6008BD94
:104970004FF080430222C3F80823024B1B6801203A
:104980009847F4E7B80D00200830034B33F81000C7
:1049900000F00100704700BF580000200830034BB2
:1049A00033F81000C0F34010704700BF58000020DB
:1049B0000830044B33F8100010F01C0018BF012021
:1049C000704700BF580000200830034B33F8100038
:1049D000C0F34000704700BF580000200830024B71
:1049E00033F81000400B704758000020002204E00C
:1049F0004FF0FF3383420FD001322F2A0AD802F141
:104A00000803064931F8133013F4807FF0D0C3F364
:104A10004323EFE700207047012070475800002033
:104A2000002313B14FF0FF307047074A52F833208C
:104A3000824201D00133F4E7034A02EBC302526819
:104A40008A42F7D118467047580000200830064BBC
:104A500033F8100010F4807F04D0C0F3432003EB40
:104A6000C0007047002070475800002070B5044611
:104A70000D46FFF7EBFF20B1066842682946204645
:104A8000B047044B9B6823B1024AD26829462046AE
:104A9000984770BD5800002000F10802164B33F80B
:104AA000123013F4807F26D010B5C3F34324104690
:104AB00023F4F853104A22F810302046FFF796FFEF
:104AC00000B110BD0C48002340F83430214674304A
:104AD000FFF786FD094B9842F3D0094C4FF49973C8
:104AE00022460849084804F050FC4FF499712046CA
:104AF00004F044FCE5E77047580000200000AD0BCF
:104B000060B30000A0B30000CCA4000010B50446C0
:104B1000FFF744FF40B12046FFF760FF00F5A270A9
:104B2000064B002243F820202046FFF7B5FF08344B
:104B3000034B002223F8142010BD00BF006000408A
:104B40005800002070B582B006460C461546FFF7A7
:104B5000A3FF24B329462046FFF762FF031E13DBA1
:104B6000104A42F8334002EBC3014D605B029BB236
:104B700006F1080032F810100B4343F4807322F85A
:104B80001030094802B070BD0DF107010748FFF76A
:104B9000FFFC054B9842F5D19DF80730E0E702484D
:104BA000F0E700BF580000200000AD0BCC00002053
:104BB00038B5044618E094FAA4F3B3FA83F301225B
:104BC0009A4024EA02040A4A03F5A27352F82350D9
:104BD000C5F3052552F82300C0F3014005F060F944
:104BE00001462846FFF742FF002CE4D138BD00BF44
:104BF0000060004082B08446114B93E8030002AB92
:104C000003E90300604600230BE002AA02EB8302E3
:104C100052F8082CD2F8201540F8041BC2F82015D1
:104C20000133012BF1D90023012B04D85CF8232098
:104C300022B90133F8E7002002B070470120FBE7FA
:104C400020A400002DE9F84304460D461646084608
:104C500005F028F960BB022E00F0F5804FF0020845
:104C6000630900F0F380012B40F0F3804FF6FF73EF
:104C700004F01F02D34013F0010F00F0EC8004F0A9
:104C80001F07630900F0F580012B00F0F580DFF8C5
:104C9000249240F22E234A468749884804F075FB47
:104CA00040F22E21484604F069FB4FF0A041E4E0B9
:104CB00029462046FFF7DAFE63091FD0012B20D1D9
:104CC0004FF6FF7304F01F02D34013F0010F1AD008
:104CD00004F01F05630924D0012B25D0754F40F245
:104CE0002E233A467449754804F04FFB40F22E21BA
:104CF000384604F043FB4FF0A04316E04FF0FF337B
:104D0000E0E70023DEE76B4D40F229232A466C4999
:104D10006A4804F03AFB40F22921284604F02EFBB1
:104D2000D6E74FF0A04300E0664B05F5E07553F879
:104D30002530C3F301439E4240F0AF8063091FD08A
:104D4000012B20D14FF6FF7304F01F02D34013F064
:104D5000010F1AD004F01F05630924D0012B25D0C0
:104D6000544F40F22E233A465349544804F00DFB69
:104D700040F22E21384604F001FB4FF0A04116E02E
:104D80004FF0FF33E0E70023DEE74A4D40F22923EE
:104D90002A464B49494804F0F8FA40F229212846AE
:104DA00004F0ECFAD6E74FF0A04100E0454905F5E4
:104DB000E07351F8232022F4403241F823206309A4
:104DC0001FD0012B20D14FF6FF7304F01F02D340F8
:104DD00013F0010F1AD004F01F05640924D0012C30
:104DE00025D0344C40F22E2322463349334804F078
:104DF000CCFA40F22E21204604F0C0FA4FF0A04138
:104E000016E04FF0FF33E0E70023DEE7294D40F2E4
:104E100029232A462A49294804F0B7FA40F22921D1
:104E2000284604F0ABFAD6E74FF0A04100E0254950
:104E300005F5E07351F8232022F4403242EA064699
:104E400041F8236029E04FF0030809E74FF0FF33F2
:104E50000EE700230CE7174F40F229233A46184982
:104E6000164804F092FA40F22921384604F086FAF6
:104E700005E74FF0A04100E0124907F5E07251F854
:104E8000223023F4403343EA084341F82230032D13
:104E900007D0022E03D0032E08D0BDE8F883012DE1
:104EA000F9D129462046FFF7E1FDF6E7022DF4D1BE
:104EB000F7E700BF8CB1000090A60000CCA4000072
:104EC000C0B10000000300502DE9F04184B0654AF4
:104ED0006B4692E8030083E80300002302A80BE07E
:104EE00004AA02EB830252F8102CD2F8201540F8E5
:104EF000041BC2F820150133012BF1D9ADE04FF0AE
:104F0000FF337FE000237DE0574F40F229233A46EC
:104F10005649574804F039FA40F22921384604F03E
:104F20002DFA76E04FF0A04300E0524B07F5E07712
:104F300053F82720C2F3014231462046FFF782FE94
:104F400063091FD0012B20D14FF6FF7304F01F021D
:104F5000D34013F0010F1AD004F01F06640924D0C7
:104F6000012C25D0404C40F22E2322464249404895
:104F700004F00BFA40F22E21204604F0FFF94FF026
:104F8000A04216E04FF0FF33E0E70023DEE7364EA5
:104F900040F2292332463549354804F0F6F940F20B
:104FA0002921304604F0EAF9D6E74FF0A04200E0AC
:104FB000304A0123B340C2F8203504AB03EB85032C
:104FC00053F8084C002C3BD094FAA4F4B4FA84F4BF
:104FD00004EB451404F10802284B33F81260C6F3C1
:104FE0008206E10804F0070202A8012303FA02F294
:104FF000435C23EA02034354630980D0012B81D12F
:105000004FF6FF7304F01F02D34013F0010F3FF47B
:105010007BAF04F01F07630984D0012B85D0DFF834
:10502000488040F22E2342461349114804F0ADF95E
:1050300040F22E21404604F0A1F94FF0A04375E75D
:105040000135012DB9D90E4B0022C3F87C21D3F8CC
:105050007C3102A8FFF7CEFD08B10025F1E704B0CE
:10506000BDE8F08120A400008CB10000C0B10000B8
:10507000CCA400000003005090A6000058000020BF
:10508000006000402DE9F843044615461E460029FD
:1050900064D0884604F0EEFE002840F0CD8063091D
:1050A00020D0012B21D14FF6FF7304F01F02D34013
:1050B00013F0010F1BD004F01F07630925D0012B4B
:1050C00026D0DFF8849140F22E234A465F4960489B
:1050D00004F05BF940F22E21484604F04FF94FF0FE
:1050E000A04116E04FF0FF33DFE70023DDE7564F26
:1050F00040F229233A465749554804F046F940F210
:105100002921384604F03AF9D5E74FF0A04100E0F4
:10511000514907F5E07351F82330B8F1000F3FD043
:105120000C2242F0030223EA0203B8F1000F39D047
:1051300098F800209200134307F5E07741F82730F4
:10514000464A04F1080132F8113023F002039BB201
:1051500022F8113043F0010322F81130BDB12F784D
:10516000D5F804802046FFF72FFCE8B1B8F1000F16
:1051700064D13A4A04F1080132F8113023F01C03DB
:105180009BB222F8113043EA870322F81130002E37
:1051900058D0726831682046FFF7D4FCBDE8F88328
:1051A0000022BEE70022C6E72C4A04F1080132F8CB
:1051B000113023F02003DB04DB0C22F81130B8F1AE
:1051C000000FD6D0032F3BD86B681D7837B905F593
:1051D000A275234B002243F82520CAE7384604F085
:1051E00060FE1F4B05F5A27253F8221021F0030157
:1051F00043F8221053F8221021F44F3121F440716A
:1052000043F8221053F822C0210201F47C5100041B
:1052100000F4403001434CEA010143F822106B03D3
:105220009BB20E4A04F1080132F81100034343F027
:10523000200322F811309CE70A48AFE70948ADE7A0
:105240000848ABE70848A9E78CB1000090A6000029
:10525000CCA40000C0B100000003005058000020A2
:10526000006000400400AD0B0000AD0B2DE9F047DD
:1052700004461546002900F086800F4604F009FE1A
:1052800028B12046FFF78AFB002840F0CE80204658
:10529000FFF78EFB18B17B78012B00F0C88007F177
:1052A000010907F10208630920D0012B21D14FF633
:1052B000FF7304F01F02D34013F0010F1BD004F062
:1052C0001F06630925D0012B26D0DFF870A140F21C
:1052D0002E2352465A495B4804F057F840F22E21DB
:1052E000504604F04BF84FF0A04216E04FF0FF3369
:1052F000DFE70023DDE7514E40F2292332465249D1
:10530000504804F042F840F22921304604F036F8C3
:10531000D5E74FF0A04200E04C4A06F5E07352F8A2
:105320002310B9F1000F4BD0022343F00103B8F171
:10533000000F47D00C200343002F45D04FF4E0600E
:10534000034321EA0301B9F1000F3FD07B785B00F2
:1053500043F00103B8F1000F3AD0B878800003435E
:10536000002F37D03878000203430B4306F5E07670
:1053700042F82630364A04F1080132F8113043F081
:10538000030322F81130002D53D0204604F081FD94
:10539000002850D12B7803F5A2712E4A42F8210043
:1053A0002B4904F1080031F8102022F02002D20429
:1053B000D20C21F810206A7872B92748BDE8F0872E
:1053C0000023B2E70020B6E70020B9E70023BFE7DB
:1053D0000020C4E70020C7E7AF781E4803F5A27598
:1053E00050F8251021F4991121F4F85140F82510B6
:1053F00050F82560210201F47C51120402F440327D
:105400000A43390501F480110A43324340F825204C
:105410005B039BB20E4A083432F814100B4343F07E
:10542000200322F814300C48C8E70C48C6E70B48A4
:10543000C4E70948C2E70948C0E700BF8CB10000D3
:1054400090A60000CCA40000C0B1000000030050F2
:1054500058000020006000400000AD0B0400AD0BC0
:10546000014B9860D96070475800002070B5044621
:105470000D4659B12046FFF791FAA8B108340B4BFD
:1054800033F814305B0B2B70094870BD094E40F2A5
:10549000352332460849094803F077FF40F23521A9
:1054A000304603F06BFFE5E70548EEE758000020C3
:1054B0000000AD0B60B30000B4B30000CCA400004A
:1054C0000400AD0B104B93F878300BB10F487047C8
:1054D00010B50D4C6022002104F1100004F06FF8AB
:1054E0000620FCF7EFFD0A4B0022C3F87C21D3F81D
:1054F0007C214FF00042C3F80423012384F8783064
:105500006367044810BD00BF580000200500AD0BC4
:10551000006000400000AD0B034B93F878000038AA
:1055200018BF0120704700BF5800002008B5014691
:105530000148FFF755F808BDC800002008B501462E
:105540000148FFF725F808BDC800002070B50446E3
:105550000D46FFF72DFAB8B12046FFF71FFA18B134
:10556000204604F096FCE8B9002D4CD004F1080365
:10557000704A32F81330C3F38203042B00F0928098
:10558000052B4ED102268EE06B4E40F2DF333246C1
:105590006A496B4803F0F9FE40F2DF31304603F010
:1055A000EDFED9E72046FFF719FA044607281CD874
:1055B000A30003F580739BB203F1804303F5C0435E
:1055C00000221A601B685F4A04F5A27152F821306C
:1055D00043F0010342F82130002D00F0A9800120A2
:1055E00000FA04F4C2F80443A2E0574E4FF42373C8
:1055F00032465649524803F0C8FE4FF423713046F4
:1056000003F0BCFED4E74C4D40F2EE332A4650493D
:105610004B4803F0BAFE40F2EE31284603F0AEFEEE
:10562000A4E763091FD0012B20D14FF6FF7304F0CC
:105630001F02D34013F0010F1AD004F01F056309B5
:1056400024D0012B25D0434E40F22E23324642492E
:105650003B4803F09AFE40F22E21304603F08EFEC6
:105660004FF0A04316E04FF0FF33E0E70023DEE702
:10567000384D40F229232A463849314803F085FE47
:1056800040F22921284603F079FED6E74FF0A043E7
:1056900000E0334BD3F81035EB4013F0010F24D06A
:1056A000032600E00326630921D0012B22D14FF607
:1056B000FF7304F01F02D34013F0010F1CD004F05D
:1056C0001F05640926D0012C27D0224C40F22E233E
:1056D000224621491A4803F058FE40F22E21204666
:1056E00003F04CFE4FF0A04118E00226DBE74FF03C
:1056F000FF33DEE70023DCE7164D40F229232A467C
:1057000016490F4803F041FE40F22921284603F0D4
:1057100035FED4E74FF0A04100E0114905F5E072F5
:1057200051F8223023F4403343EA064341F8223053
:1057300070BD00BF5800002060B3000004B400003A
:10574000CCA4000000600040C0B30000F8B300002B
:105750001CB400008CB1000090A60000C0B1000095
:105760000003005038B50446FFF718F9A0B12046F1
:1057700004F08FFB80B12046FFF730F90122824010
:10578000264BC3F8082300F5A27053F8202022F01E
:10579000030243F8202040E063091FD0012B20D1F1
:1057A0004FF6FF7304F01F02D34013F0010F1AD01D
:1057B00004F01F05640924D0012C25D0184C40F2B8
:1057C0002E2322461749184803F0DFFD40F22E2110
:1057D000204603F0D3FD4FF0A04116E04FF0FF3319
:1057E000E0E70023DEE70E4D40F229232A460F4969
:1057F0000D4803F0CAFD40F22921284603F0BEFD02
:10580000D6E74FF0A04100E0094905F5E07351F8F3
:10581000232022F4403241F8232038BD00600040AC
:105820008CB1000090A60000CCA40000C0B1000024
:105830000003005038B50446FFF7A6F808B924481D
:1058400038BD2046FFF78EFF2046FFF75FF963095A
:105850001FD0012B20D14FF6FF7304F01F02D3405D
:1058600013F0010F1AD004F01F05640924D0012C95
:1058700025D0184C40F22E2322461749174803F032
:1058800084FD40F22E21204603F078FD4FF0A04326
:1058900016E04FF0FF33E0E70023DEE70D4D40F266
:1058A00029232A460E490D4803F06FFD40F22921B5
:1058B000284603F063FDD6E74FF0A04300E0094B14
:1058C00005F5E075022243F825200748B8E700BF38
:1058D0000400AD0B8CB1000090A60000CCA4000029
:1058E000C0B10000000300500000AD0B38B501202E
:1058F0004FF4807300210C4603E0400004339BB258
:105900000131072914D803F1804202F5C042126820
:10591000002AF2D00C4AD2F804231042EDD003F151
:10592000804202F5C0420025156012680443E4E796
:10593000054BD3F87C311BB92046FFF739F938BD48
:10594000FFF7C2FAF8E700BF0060004008B5014663
:105950000148FEF71DFE08BDD400002010B5144C10
:10596000032323616361134AA261134BE3614FF484
:10597000806323620023A3626362E36222660F4AAC
:1059800062661022A2662367E36663670C49E01D26
:1059900003F0AFFDBFF35F8F0A49204603F0A9FD76
:1059A000BFF35F8F2023A371BFF35F8F10BD00BFD4
:1059B000C00D002028B40000780E0020680E0020E2
:1059C00034B4000038B40000034B00E01833034A3D
:1059D0009342FBD3704700BFCCA1000044A200005B
:1059E00070B50646114B53F8204009E0404217E0DD
:1059F000EB681870EA68537843F001035370083479
:105A0000731C0A4A52F82330A3420DD965682368F3
:105A100028469847002DF2D00028EBD00028E5DB7F
:105A2000FF28E5DDFF20E3E770BD00BF40B40000C4
:105A3000F8B504460E464FF02003EFF3118783F3C9
:105A40001288BFF36F8F02F029FA054631462046CF
:105A500004F065F9042C07D087F31188BFF36F8F2A
:105A60002846FCF791FEF8BD074C8F2322460749D4
:105A7000074803F08AFC074803F087FC8F21204683
:105A800003F07CFCE8E700BF58B400007CB40000E1
:105A9000CCA400009CB4000010B586B0114CB0231B
:105AA00003FB004400EB40020F4B03EBC2030F4A21
:105AB0000592012204920F22039200220292019287
:105AC00000930B4B4FF4A0720A494FF4B07C0CFBCF
:105AD0000011204600F074FA637B23F00403637323
